:020000040800F2
:1000000000000220A5330008010E0008150E0008AC
:10001000290E00083D0E0008510E000800000000E7
:10002000000000000000000000000000650E000855
:10003000790E0008000000008D0E0008050F000872
:10004000F1330008F1330008F1330008F133000800
:10005000F1330008F1330008A10E0008F133000865
:10006000F1330008F1330008F1330008F1330008E0
:10007000F1330008F1330008F1330008F1330008D0
:10008000F1330008F1330008F1330008F1330008C0
:10009000F1330008F1330008F1330008F1330008B0
:1000A000F1330008F1330008F1330008F1330008A0
:1000B000F1330008F1330008BD0C0008F1330008EB
:1000C000F1330008F1330008F1330008F133000880
:1000D000F1330008F1330008F1330008F133000870
:1000E000F1330008F1330008F1330008F133000860
:1000F000F1330008F1330008F1330008F133000850
:10010000F1330008F1330008F1330008F13300083F
:10011000F1330008F1330008F1330008CD0800087E
:10012000F1330008F1330008F1330008F13300081F
:10013000F1330008F1330008F1330008F13300080F
:10014000F1330008F1330008F1330008F1330008FF
:10015000F1330008F1330008F1330008650A0008A4
:10016000F1330008F1330008F1330008F1330008DF
:10017000F1330008F1330008F1330008F1330008CF
:08018000F1330008F13300081F
:1001880070B588B02020012101F016FF042001215C
:1001980001F0DAFEC023069302238DF81C308DF897
:1001A8001D3000248DF81E4001258DF81F501F4E6C
:1001B800304606A901F0E2FC30460621082201F08B
:1001C80069FD30460721082201F064FD4FF4E13350
:1001D8000293ADF80C40ADF80E40ADF81040ADF804
:1001E80014400C23ADF81230A6F57446304602A927
:1001F80002F07AFE3046294602F0FEFE304640F212
:1002080025512A4602F0D4FF47238DF804308DF893
:1002180005408DF806408DF8075001A800F05CFFF6
:100228003046294602F0E8FE08B070BD00080240DA
:1002380038B504460D4609E0238803F040039BB215
:10024800002BF9D0204602F00BFF01352978002950
:10025800F2D138BD30B585B00A4604A9002301F8AB
:10026800023D0A4D0BE0A5FB0243DB081C4603EBED
:1002780083035B00D31A303301F8013D2246002A7C
:10028800F1D1FFF7D5FF05B030BD00BFCDCCCCCC48
:1002980070B584B030238DF8043078238DF805309C
:1002A80000238DF80E30094D09E001F00F02AC5C17
:1002B80004AEF21A02F8034C09090133DBB2072B2A
:1002C800F3D901A9FFF7B4FF04B070BD28340008C2
:1002D80010B4002209E002EB82035B001A46303CAE
:1002E800092C00D81A190130013904780CB10029F9
:1002F800F1D110465DF8044B704700BFF0B40228F6
:1003080000D10223013BDBB21D4C2688B6B26588BA
:10031800ADB201351B4C84FB0574A41140F2F317F0
:1003280007FB1454A64228D0154C6588ADB205EBDE
:1003380045056D0025442871608880B200EB4000B7
:10034800400020444171618889B201EB41014900B4
:100358002144CA80628892B2DBB202EB42025200A8
:1003680022441372628892B20132064B83FB021355
:100378009B1107FB13239BB26380F0BC704700BF3F
:100388003C000020396BD5200A4B1A8892B25B8852
:100398009BB29A420DD0074A118889B20131064BA7
:1003A80083FB01039B1140F2F31000FB13139BB274
:1003B800138070473C000020396BD52010B582B0FF
:1003C800164BD3F8CC1BD3F8D02B1143D3F8D42B2E
:1003D8000A43D3F8D84B42EA040358B10F4AD2F87B
:1003E800C01B0B43D2F8C41B0B43D2F8C82B1343D2
:1003F800012200E0002200938DF8042000238DF8EC
:1004080006308DF8073001238DF80530034BD3F8FB
:10041800BC0B694601F0B2FB02B010BD3C000020E5
:1004280008B530B1074BD3F8BC0BB3F8C81B01F0C3
:100438002DFC044BD3F8BC0BB3F8C81B01F026FC09
:1004480008BD00BF3C00002010B50020FFF7B6FF34
:10045800134CD4F8C01BD4F8D83B1943D4F8BC0BC0
:1004680089B201F009FCD4F8BC0BB4F8C41B01F044
:1004780001FC0020FFF7D4FFD4F8BC0BB4F8D81B5C
:1004880001F0E0FB04460020FFF7CAFF0120FFF758
:10049800C7FF012C01D1012010BD002010BD00BFF5
:1004A8003C00002070B505460E460120FFF786FF88
:1004B800194CD4F8BC0BB4F8C41B01F0DDFBD4F81C
:1004C800BC0BB4F8C01B86F0010201F0D7FBD4F8CE
:1004D800BC0BB4F8D81BC5F3C00201F0CFFBD4F8AD
:1004E800BC0BB4F8D41BC5F3800201F0C7FBD4F8E9
:1004F800BC0BB4F8D01BC5F3400201F0BFFBD4F825
:10050800BC0BB4F8CC1B05F0010201F0B7FB0120CD
:10051800FFF786FF70BD00BF3C00002010B5204BE0
:100528001A8892B25B889BB29A4238D01C4A32F839
:10053800043B9BB203EB43035B00D418D35CDBB2F0
:10054800022B10D0032B16D0012B28D163889BB225
:1005580023B16388013B9BB2638010BDFFF714FF92
:10056800FFF7DCFF10BDFFF76FFFC0B9FFF70CFF07
:10057800FFF7D4FF10BD23795BB2012B05D160884A
:100588006178C0F30710FFF78DFF6088617800F08D
:100598000F00FFF787FFFFF7F7FEFFF7BFFF10BD5C
:1005A8003C00002008B5032001210A460223FFF77A
:1005B800A5FE022000210A460B46FFF79FFE08BD54
:1005C80008B50320012102221346FFF797FE0220F7
:1005D80000210A460B46FFF791FE08BD08B520B971
:1005E8000C4B58801880082300E00C2309B143F015
:1005F80002030AB143F00103032001211A46022332
:10060800FFF77CFE022000210A460B46FFF776FE24
:1006180008BD00BF3C00002000B583B003460C4A6B
:100628001068019002AA134413F8042C0A4403200A
:10063800012142F080020223FFF760FE0220002120
:100648000A460B46FFF75AFE03B05DF804FB00BFED
:10065800F43300082DE9F0418846C2000320012147
:1006680042F040020223FFF749FE002403272646F2
:1006780002250EE03846314618F804202B46FFF7CD
:100688003DFE2846314632463346FFF737FE0134F1
:10069800E4B2072CEED9BDE8F08100BF08B50246E8
:1006A800032000210223FFF729FE022000210A4629
:1006B8000B46FFF723FE08BD2DE9F041074600244D
:1006C8004FF00308264602250CE0404631462B46EB
:1006D800FFF714FE2846314632463346FFF70EFE32
:1006E8000134E4B23A5D002AEFD1BDE8F08100BFE1
:1006F800F0B585B06E4CC4F8BC0BC4F8C01BC4F888
:10070800C42BC4F8C83BBDF82830C4F8CC3BBDF8AE
:100718002C30C4F8D03BBDF83030C4F8D43BBDF819
:100728003430C4F8D83B9DF8383084F8DC3B9DF869
:100738003C3084F8DD3B5F4B984212D003F5806370
:10074800984210D003F5806398420ED003F5806379
:1007580098420CD003F58063984240F0A6801020A0
:1007680006E0012004E0022002E0042000E0082066
:10077800012101F0E9FB2020012101F00FFC4FF4D9
:10078800C06000F09FFC37238DF80C3001248DF8F1
:100798000D4006278DF80E708DF80F4003A800F065
:1007A8009BFC0B230193444B1A68444BA3FB021395
:1007B800DB0B013BADF800300025ADF80850ADF873
:1007C80002503F4E3046694601F074FE30462146DD
:1007D800224602F037FA3046214601F00BFF204648
:1007E80021464FF47A722346FFF788FD03202146FD
:1007F80002462346FFF782FD2046294605222B465E
:10080800FFF77CFD0320214602462346FFF776FDCD
:100818002046294622462B46FFF770FD0320214635
:1008280002462346FFF76AFD2046294622462B4604
:10083800FFF764FD0320214602222346FFF75EFDF1
:100848002046294622462B46FFF758FD184B93F8B9
:10085800DC2B93F8DD3B1A430320214642F02002AB
:100868000223FFF74BFD2046294622462B46FFF779
:1008780045FD032021460C220223FFF73FFD2046B9
:10088800294622462B46FFF739FD032021463A46E2
:100898000223FFF733FD022029462A462B46FFF79D
:1008A8002DFDFFF77FFEFFF78BFE05B0F0BD00BF03
:1008B8003C000020000002400400002083DE1B43AF
:1008C8000014004008B5FFF729FE0248012102F094
:1008D800DFF908BD0014004070B54D4B1B78613B33
:1008E800122B00F28F80DFE803F0718D8D8D8D8DD6
:1008F8000A8D8D8D8D7A8D8D528D688D2300454B97
:100908001E685D68444C20464449FFF791FC204628
:100918003146FFF79FFC20464149FFF789FC2046F6
:100928002946FFF797FC20463E49FFF781FC70BD3A
:10093800384B1B7A012B11D93B4C20460521FFF778
:10094800C7FC0546601D0521FFF7C2FC314BDD6081
:10095800186131483549FFF76BFC70BD2D4BDE68D7
:100968001D692D4C20463249FFF762FC204631466E
:10097800FFF770FC20462F49FFF75AFC204629460E
:10098800FFF768FC20462749FFF752FC70BD214B52
:100998001B7A012B07D91E4B5A78312A14BF002223
:1009A8000122254B1A60244B1B680BB1234900E038
:1009B80023491948FFF73CFC70BD2248012101F08A
:1009C80059F915482049FFF733FC70BD1D4801212E
:1009D80001F052F910481D49FFF72AFC70BD0D4B74
:1009E80059691B4B1A681B4BA3FB02039B090A4C52
:1009F8002046B1FBF3F1FFF72DFC20460A2102F057
:100A08002FFB70BD04481449FFF712FC70BD00BFEE
:100A1800540C00201C0C002000140140683400080D
:100A2800543400085C340008550C00206034000879
:100A3800643400086C340008500C00203C34000872
:100A48004834000800080240783400088034000860
:100A58008C0C0020D34D62108C34000870B51348FC
:100A680002F002FBC4B20D2C01D00A2C0CD1104BA1
:100A78001B7E0D2B17D00E4D2B7A00260D4AD6540F
:100A8800FFF72AFF2E720EE0082C06D1084B1B7ABE
:100A98001BB1013B064A137205E0054A137A591C3B
:100AA8001172044AD454024B1C7670BD00140140E4
:100AB8001C0C0020540C002000B583B0292300939F
:100AC80001238DF8043000238DF8063003228DF8B9
:100AD80005208DF807300348694601F04FF803B048
:100AE8005DF804FB0008024010B584B00420012121
:100AF80001F054FA4FF080420B4B1A60A72302937F
:100B08000423ADF804300023ADF80C30ADF80630FE
:100B1800064C204601A901F0CDFC0121A181204607
:100B280001F068FD04B010BD00E100E000080040DD
:100B380070B5224B1A68224BA3FB02129209013AA4
:100B4800204B5A60F021204A82F8231000249C6030
:100B580007221A60012002F085FB204602F082FB82
:100B6800022002F07FFB032002F07CFB204602F00B
:100B78009DFB4FF47A7000F0A9F9204602F0A4FB1F
:100B880000F0B2F8FFF7FCFAFFF796FFFFF7ACFFAB
:100B98002046012102F0B6FB0C480D49FFF748FB3F
:100BA8000C4D64260C4C6B6983F400436B61304632
:100BB80000F08CF9636901336361F4E704000020F5
:100BC800D34D621010E000E000ED00E00014014099
:100BD800A0340008000C02401C0C002030B42E4A3F
:100BE80013889BB22D4CB4F9001001FB03F32C4879
:100BF80080FB03511944DB17C3EBE121294B5D8BC3
:100C0800491B1960528892B2B4F9024004FB02F2FF
:100C180080FB02401044D217C2EBE0229C8B121BCF
:100C28005A604FF4E04420484483DB6899420FD26D
:100C38001C48006982420BD21C48006840B14FF43E
:100C48000052194B1A830822A3F580631A8320E007
:100C58001448006982420BD3144A126842B14FF417
:100C68008042114B1A830822A3F580635A8310E04F
:100C780099420BD30D4B1B6843B14FF480520A4B7A
:100C88001A830822A3F580635A8302E00822084BDE
:100C98005A8330BC704700BF880C00200000002039
:100CA800810008801C0C0020000C0240500C002021
:100CB8000008024008B50A4B1B8A13F0010F0DD03B
:100CC800074A138A23F001031B041B0C1382054BEC
:100CD8005A6982F020025A61FFF780FF08BD00BF01
:100CE8000008004000080240F0B59DB03C480121D2
:100CF80001F02AF94FF44070012101F05DF9062353
:100D0800019303238DF8083000248DF80B403548F3
:100D180001A900F033FF0394334B0493334B05933D
:100D280006940125079508944FF4806309934FF4BE
:100D380080530A934FF480430B934FF480730C93C2
:100D48004FF400330D930E940F9510941194284E80
:100D5800304603A900F0D0FC3046294600F00AFDD1
:100D68000723129315944FF400431493139412A875
:100D780000F052FA16948DF85C408DF85D50189486
:100D88001A948DF86C50A6F5A236103E304616A976
:100D980000F010FA174F384616A900F00BFA304643
:100DA8000B212A46234600F091FA38460C212A46A0
:100DB800234600F08BFA3046294600F015FB2846FA
:100DC80000F02AFB3046294600F042FA3846294608
:100DD80000F03EFA304600F0C3FA1DB0F0BD00BF87
:100DE800040040000008024008230140880C00204D
:100DF800106402400021014008B502480249FFF78B
:100E080017FA08BD00140140C434000808B50248A8
:100E18000249FFF70DFAFEE700140140D434000838
:100E280008B502480249FFF703FAFEE7001401403B
:100E3800E834000808B502480249FFF7F9F9FEE767
:100E480000140140FC34000808B502480249FFF7C5
:100E5800EFF9FEE7001401401035000808B5024814
:100E68000249FFF7E5F908BD0014014040350008C4
:100E780008B502480249FFF7DBF908BD0014014034
:100E88002835000808B502480249FFF7D1F908BD1E
:100E9800001401403C35000838B5012000F0D6FDAB
:100EA80078B1084B1A68D2F1010238BF00221A60E3
:100EB800054C012503E0284600F0D8FD013C002C34
:100EC800F9D138BD500C002080841E0082B00190FA
:100ED800019A044B1A601A461368002BFCD102B021
:100EE800704700BF4C0C0020034B1B681BB1024B22
:100EF8001A68013A1A6070474C0C002008B5054B77
:100F08001B680BB1FFF7F0FF034B1A6801321A6038
:100F180008BD00BF4C0C00208C0C002082B00023C0
:100F2800019300932A4B1A6842F480321A601A46D9
:100F3800136803F400330093019B01330193009B72
:100F48001BB9019BB3F5A06FF2D1214B1B6813F4B9
:100F5800003F02D00123009301E000230093009B8F
:100F6800012B32D11A4B1A6C42F080521A64194A7A
:100F7800116841F4804111609A689A609A6842F455
:100F880000429A609A6842F4A0529A60124A5A60E3
:100F98001A6842F080721A601A46136813F0007FCC
:100FA800FBD040F205620D4B1A60A3F580639A6886
:100FB80022F003029A609A6842F002029A601A4686
:100FC800936803F00C03082BFAD102B0704700BFF6
:100FD800003802400070004008544007003C0240BE
:100FE80008B50D4B1A6842F001021A600021996099
:100FF8001A6822F0847222F480321A60074A5A6012
:101008001A6822F480221A60D960FFF787FF4FF030
:101018000062034B9A6008BD00380240103000247B
:1010280000ED00E0234B9B6803F00C03042B07D072
:10103800082B09D0002B2DD11F4A204B1A602CE019
:101048001F4A1E4B1A6028E01A4B59685B6803F068
:101058003F0311F4800F09D0194AB2FBF3F3154A84
:101068005268C2F3881202FB03F208E0124AB2FB8C
:10107800F3F3104A5268C2F3881202FB03F20D4BD5
:101088005B68C3F3014301335B00B2FBF3F20B4B24
:101098001A6002E0084A094B1A60064B9A68C2F3C4
:1010A8000312064B1A441179C9B21A68CA401A6069
:1010B800704700BF003802400024F40004000020FC
:1010C80000127A0040F0BF6040F40030014BD86055
:1010D800704700BF00ED00E010B4C3781BB3194B94
:1010E800DB68DB43C3F30223C3F10402D2B20F214E
:1010F80041FA03F3417801FA02F2D2B2847803EAA2
:10110800040111430901C9B202780F4B1A4482F84D
:1011180000130278510902F01F02012000FA02F2BE
:1011280043F821200AE00378590903F01F0301223C
:1011380002FA03F32031044A42F821305DF8044BE7
:10114800704700BF00ED00E000E100E021F06041E1
:1011580021F07F010843014B9860704700ED00E0E3
:1011680021B1054B1A69104318617047024B1A697F
:1011780022EA00001861704700ED00E0042805D15C
:10118800054B1A6842F004021A607047024B1A684D
:1011980022F004021A60704710E000E008B54FF42E
:1011A8008070012100F04EFF4FF48070002100F0A4
:1011B80049FF08BD10B4436823F0407323F48073DB
:1011C8000C790A6842EA04221343436082680C4B94
:1011D80013400C69CA6814438A6822434C7942EA6E
:1011E800440213438360C26A22F470020B7D013B00
:1011F800DBB242EA0353C3625DF8044B704700BF99
:10120800FDF7FFC000230360037143718360C3606F
:10121800036101230375704710B4084A5168084BED
:101228000B40046841680C4381682143C06801434E
:101238000B4353605DF8044B704700BF0023014027
:10124800E030FCFF0023036043608360C3607047A5
:1012580021B1836843F0010383607047836823F0FA
:1012680001038360704700BF436823F4400323F4FD
:10127800007319434160704741628262704700BF42
:10128800436823F01F0319434160704728B1064B98
:101298005A6842F400025A607047034B5A6822F4B5
:1012A80000025A60704700BF0023014028B1064B76
:1012B8005A6842F480025A607047034B5A6822F415
:1012C80080025A60704700BF0023014070B40929AA
:1012D8000ED9C668A1F10A0404EB44040725A54009
:1012E80026EA050503FA04F445EA0403C3600BE0A3
:1012F800066901EB41040725A54026EA050503FA1E
:1013080004F445EA04030361062A0CD8446B013A45
:1013180002EB82021F23934024EA0303914043EA2D
:10132800010242631AE00C2A0CD8046B073A02EB5C
:1013380082021F23934024EA0303914043EA0102F7
:1013480002630BE0C46A0D3A02EB82021F2393404A
:1013580024EA0303914043EA0102C26270BC704769
:10136800836843F080438360704700BF836813F449
:10137800800F01D0012070470020704721B1836899
:1013880043F4806383607047836823F480638360D9
:10139800704700BF21B1836843F002038360704740
:1013A800836823F002038360704700BF436823F417
:1013B8006043013943EA41334360704721B14368D0
:1013C80043F4006343607047436823F40063436059
:1013D800704700BFC06C80B2704700BF014B1868EF
:1013E800704700BF0823014021B1836843F480732C
:1013F80083607047836823F480738360704700BFFD
:1014080021B1836843F4007383607047836823F4D1
:1014180000738360704700BF28B1064B5A6842F4D6
:1014280000525A607047034B5A6822F400525A60BF
:10143800704700BF0023014070B409290ED9C6685F
:10144800A1F10A0404EB44040725A54026EA050592
:1014580003FA04F445EA0403C3600BE0066901EBF0
:1014680041040725A54026EA050503FA04F445EAE0
:1014780004030361846BC4F30153D31A0233DBB250
:1014880003EB83031F229A4024EA0204994044EAAA
:101498000103836370BC7047836B23F440130139E5
:1014A80043EA01538363704782B00023019301909C
:1014B800019B19440191019B1A6002B0704700BF5B
:1014C800836823F47023194381607047836823F489
:1014D8004013194381607047836843F48003836035
:1014E800704700BF836813F4800F01D00120704754
:1014F8000020704721B1436843F48063436070471C
:10150800436823F480634360704700BF21B1436898
:1015180043F4805343607047436823F48053436027
:10152800704700BF82B0002301930190019B1944CA
:1015380001F128030193019B186880B202B070473B
:10154800C9B2012303FA01F11AB143681943416092
:101558007047436823EA01014160704703680B4202
:1015680001D0012070470020704700BFC9430160C7
:10157800704700BF10B44268CBB2012404FA03F3E9
:101588001A40036813EA112102D01AB9002002E0B8
:10159800002000E001205DF8044B70476FEA11213C
:1015A80001607047036823F00103036000230360B0
:1015B80043608360C3600361212343613B4B9842CE
:1015C80003D13D22103B9A607047394B984204D1B1
:1015D8004FF47462283B9A607047364B984204D1A6
:1015E8004FF47412403B9A607047334B984204D1D1
:1015F8004FF07462583B9A607047304B984203D161
:101608002F4A703BDA6070472E4B984203D12E4A1E
:10161800883BDA6070472D4B984203D12C4AA03B97
:10162800DA6070472B4B984204D14FF03D52B83BDB
:10163800DA607047284B984203D13D22103B9A60EC
:101648007047264B984204D14FF47462283B9A6045
:101658007047234B984204D14FF47412403B9A6070
:101668007047204B984204D14FF07462583B9A60FF
:1016780070471D4B984203D1114A703BDA6070479E
:101688001A4B984203D1104A883BDA607047184BCE
:10169800984203D10E4AA03BDA607047154B984236
:1016A80003D14FF03D52B83BDA60704710600240FA
:1016B800286002404060024058600240706002406A
:1016C8003D00002088600240400F0020A0600240DA
:1016D80000003D20B86002401064024028640240C7
:1016E80040640240586402407064024088640240CA
:1016F800A0640240B864024010B40268134B13405F
:101708000C68CA6814434A6914438A691443CA694D
:1017180014430A6A14434A6A14438A6A14434A6B94
:1017280014438A6B224313430360446924F007047B
:10173800CA6A0B6B1343234343610B6943604B68CD
:1017480083608B68C3605DF8044B70473F801CF072
:101758000023036043608360C36003614361836166
:10176800C361036243628362C36203634363836347
:10177800704700BF21B1036843F00103036070475D
:10178800036823F001030360704700BF21B10368B9
:1017980043F4004303607047036823F40043036085
:1017A800704700BF21B1036843F02003036070470E
:1017B800036823F020030360704700BF416070474F
:1017C800406880B2704700BF22B1036843F4002329
:1017D800036003E0036823F400230360016170479A
:1017E80021B1036843F4802303607047036823F43E
:1017F80080230360704700BF0AB101617047C16070
:10180800704700BF036813F4002F01D00120704710
:1018180000207047036813F0010F01D001207047C2
:1018280000207047406900F0380070470B4B984221
:1018380002D8A3F20F4300E0094B11F0005F01D07A
:101848005B6800E01B6823F0F02323F082130B424F
:1018580001D0012070470020704700BF0F6402408C
:10186800006402400A4B984202D8A3F20F4300E0FA
:10187800084B11F0005F05D021F0F02121F0821112
:10188800D960704721F0F02121F0821199607047EA
:101898000F6402400064024011F0800F09D022B1A9
:1018A800436943F08003436103E0436923F0800305
:1018B800436180290CD02AB1036801F01E01194345
:1018C80001607047036801F01E0123EA010101600D
:1018D800704700BF124B984201D8124A00E0124AE2
:1018E80021F0F02323F0C3132BB1CB0A03F01E031E
:1018F8000068184002E0406900F0800011F0005FC5
:1019080001D0536800E0136823F0F02323F082131A
:101918000B4201D010B97047002070470120704772
:101928000F64024000600240006402400A4B984283
:1019380002D8A3F20F4300E0084B11F0005F05D076
:1019480021F0F02121F08211D960704721F0F021B7
:1019580021F08211996070470F64024000640240D0
:10196800044B00221A605A609A60DA60024A5A618F
:10197800704700BF003C0140FFFF7F0010B483792F
:10198800002B33D0204B1968026821EA02021A6042
:101998005968026821EA02025A60027902F180421B
:1019A80002F59E3214680168214311609968026843
:1019B80021EA02029A60D968026821EA0202DA6022
:1019C8004379102B09D1104B996802680A439A6031
:1019D800D96802680A43DA6012E003F1804303F52C
:1019E8009E33196802680A431A6009E0037903F113
:1019F800804303F59E331A68016822EA01021A60DF
:101A08005DF8044B704700BF003C014000230360B1
:101A180003710C2242718371704700BF024B1A692F
:101A280010431861704700BF003C0140034B5B69DD
:101A3800034201D00120704700207047003C01405C
:101A4800014B5861704700BF003C0140064B1A68C3
:101A580002405B69034202D01AB900207047002097
:101A680070470120704700BF003C0140014B58619E
:101A7800704700BF003C014008B5374B984208D179
:101A88000120014600F0A6FA0120002100F0A2FA88
:101A980008BD324B984208D10220012100F09AFA81
:101AA8000220002100F096FA08BD2D4B984208D17B
:101AB8000420012100F08EFA0420002100F08AFAA7
:101AC80008BD284B984208D10820012100F082FA6D
:101AD8000820002100F07EFA08BD234B984208D167
:101AE8001020012100F076FA1020002100F072FA8F
:101AF80008BD1E4B984208D12020012100F06AFA47
:101B08002020002100F066FA08BD194B984208D140
:101B18004020012100F05EFA4020002100F05AFA2E
:101B280008BD144B984208D18020012100F052FAD8
:101B38008020002100F04EFA08BD0F4B984209D1D1
:101B48004FF48070012100F045FA4FF480700021B5
:101B580000F040FA08BD00BF000002400004024047
:101B680000080240000C024000100240001402402D
:101B780000180240001C024000200240F0B400237C
:101B8800012503263EE005FA03F20C68144094424E
:101B980037D107685A0006FA02F4E4432740076081
:101BA800D0F800C00F7997404CEA070707600F7913
:101BB800013FFFB2012F16D887683C4084608768D0
:101BC8004C7994403C43846047689CB205FA04FC15
:101BD80027EA0C074760476891F806C00CFA04F436
:101BE800A4B23C434460C7689CB2640006FA04F49B
:101BF80027EA0404C460C468CF7907FA02F22243D2
:101C0800C26001330F2BBED9F0BC70474FF6FF738B
:101C180003600023037143718371C371704700BF70
:101C280082B04FF480330193019B0B430193019BD6
:101C3800C361C161019BC361C3690193C369019316
:101C480002B0704703690B4201D0012070470020A1
:101C5800704700BF006980B2704700BF43690B42FC
:101C680001D0012070470020704700BF406980B252
:101C7800704700BF01837047418370470AB10183F1
:101C880070474183704700BF4161704743695940BD
:101C98004161704730B401F007039B009A40C908BE
:101CA800083150F821400F2505FA03F324EA03030D
:101CB80040F8213050F821301A4340F8212030BC38
:101CC800704700BF0A4B1A6842F001021A600021EF
:101CD80099601A6822F0847222F480321A60054AE8
:101CE8005A601A6822F480221A60D960704700BFCF
:101CF8000038024010300024024B00221A7018707D
:101D0800704700BF02380240034B1A6822F0F802FD
:101D180042EAC0001860704700380240014B186062
:101D2800704700BF00004742084B00221A701A7023
:101D3800012802D0042804D070470122034B1A70EE
:101D480070470522014B1A70704700BF7038024077
:101D5800014B1860704700BF800E474241EA82126B
:101D68005B08013B42EA03421043009B40EA0363DD
:101D780001494B60704700BF00380240014B1860B2
:101D8800704700BF60004742090741EA8010024BD4
:101D9800C3F88400704700BF00380240014B186048
:101DA800704700BF68004742014B1860704700BF8A
:101DB8004C004742034B9A6822F0EC6201430A4305
:101DC8009A60704700380240034B9A6822F07842C4
:101DD80001430A439A60704700380240034B9A68EF
:101DE80022F0030210439860704700BF0038024099
:101DF800024B986800F00C00704700BF00380240A2
:101E0800034B9A6822F0F00210439860704700BFB5
:101E180000380240034B9A6822F4E052104398605D
:101E2800704700BF00380240034B9A6822F46042B2
:101E380042EAC000986070470038024010B4294B4D
:101E48009B6803F00C03042B05D0082B06D053BB6A
:101E5800254B036029E0254B036026E0214B5A6897
:101E68005B6803F03F0312F4800F09D01F4AB2FBEE
:101E7800F3F31C4A5268C2F3881202FB03F308E02A
:101E8800194AB2FBF3F3174A5268C2F3881202FBED
:101E980003F3144A5268C2F3014201325200B3FB01
:101EA800F2F3036001E0104B03600E498B68C3F343
:101EB80003130F4AD35CDBB2046824FA03F34360CC
:101EC8008C68C4F38224145DE4B223FA04F48460B9
:101ED8008968C1F34231525CD2B2D340C3605DF825
:101EE800044B7047003802400024F40000127A00C6
:101EF8001800002000F44073B3F5407F09D1084A68
:101F0800916821F4F81120F0704323F440730B43D7
:101F18009360034B1A6FC0F30B00104318677047A8
:101F280000380240014B1860704700BF3C0E474222
:101F3800014B1860704700BF400E4742014B1860C4
:101F4800704700BF5C01474221B1054B1A6B104333
:101F580018637047024B1A6B22EA00001863704737
:101F68000038024021B1054B5A6B10435863704743
:101F7800024B5A6B22EA000058637047003802404F
:101F880021B1054B9A6B104398637047024B9A6BCB
:101F980022EA0000986370470038024021B1054BDF
:101FA8001A6C104318647047024B1A6C22EA00003E
:101FB800186470470038024021B1054B5A6C104331
:101FC80058647047024B5A6C22EA00005864704704
:101FD8000038024021B1054B1A6910431861704757
:101FE800024B1A6922EA0000186170470038024063
:101FF80021B1054B5A69104358617047024B5A6921
:1020080022EA0000586170470038024021B1054BB0
:102018009A69104398617047024B9A6922EA000056
:10202800986170470038024021B1054B1A6A104385
:1020380018627047024B1A6A22EA00001862704759
:102048000038024021B1054B5A6A10435862704764
:10205800024B5A6A22EA0000586270470038024070
:1020680021B1054B1A6D104318657047024B1A6D64
:1020780022EA0000186570470038024021B1054B7C
:102088005A6D104358657047024B5A6D22EA00009A
:10209800586570470038024021B1054B9A6D1043CE
:1020A80098657047024B9A6D22EA00009865704760
:1020B8000038024021B1054B1A6E1043186670476C
:1020C800024B1A6E22EA0000186670470038024078
:1020D80021B1054B5A6E104358667047024B5A6E31
:1020E80022EA0000586670470038024021B1054BCB
:1020F8001A78104318707047024B1A7822EA0000C9
:10210800187070470D3802404309012B02D10A4B61
:102118001B6806E0022B02D1074B1B6F01E0064B40
:102128005B6F00F01F0023FA00F010F0010F01D0E0
:1021380001207047002070470038024010B582B077
:102148000023019331242046FFF7DEFF019B013372
:102158000193019BB3F5A06F01D00028F3D0312083
:10216800FFF7D2FF08B1012000E0002002B010BD47
:10217800024B5A6F42F080725A677047003802402B
:10218800034BDB68034201D00120704700207047F1
:1021980000380240014B1870704700BF0E380240EB
:1021A80008B54FF480400121FFF74CFF4FF4804001
:1021B8000021FFF747FF08BD014B1860704700BFBB
:1021C8000038014030B401F0030292000F2494401B
:1021D8008908084B023153F8215025EA040443F8D2
:1021E800214053F821409040044343F8214030BC3B
:1021F800704700BF00380140014B1860704700BFAE
:10220800DC002742014B1860704700BF00042742DA
:10221800044B1B6A13F4807F01D001207047002013
:10222800704700BF0038014030B4048C24F001042A
:102238002404240C0484048B058C24F0F304240463
:10224800240C1B019BB21A43144325F00A031B04F8
:102258001B0C194341F001030483038430BC70470D
:1022680030B4048C24F010042404240C0484058B5A
:10227800048C090189B225F440752D052D0D1B0329
:102288009BB21D43120292B2154324F0A0031B0413
:102298001B0C0B4343F010030583038430BC7047C9
:1022A80030B4048C24F480742404240C0484848BB7
:1022B800058C090289B224F0F3042404240C1B01C0
:1022C8009BB21A43144325F420631B041B0C1943C7
:1022D80041F480718483018430BC704730B4048C2D
:1022E80024F480542404240C0484858B048C09036E
:1022F80089B225F440752D052D0D120292B21543B1
:102308001B039BB21D4324F400546404640C214352
:1023180041F480518583018430BC704708B5584B1F
:10232800984208D101200146FFF78CFE01200021C8
:10233800FFF788FE08BDB0F1804F08D101200146A3
:10234800FFF772FE01200021FFF76EFE08BD4D4B1E
:10235800984208D102200121FFF766FE02200021E1
:10236800FFF762FE08BD484B984208D104200121BE
:10237800FFF75AFE04200021FFF756FE08BD434B25
:10238800984208D108200121FFF74EFE08200021BD
:10239800FFF74AFE08BD3E4B984208D110200121A4
:1023A800FFF742FE10200021FFF73EFE08BD394B23
:1023B800984208D120200121FFF736FE2020002175
:1023C800FFF732FE08BD344B984208D102200121A4
:1023D800FFF738FE02200021FFF734FE08BD2F4B1F
:1023E80098420AD14FF480300121FFF72BFE4FF4B9
:1023F80080300021FFF726FE08BD294B98420AD1FC
:102408004FF400300121FFF71DFE4FF4003000218A
:10241800FFF718FE08BD234B98420AD14FF48020DD
:102428000121FFF70FFE4FF480200021FFF70AFE7D
:1024380008BD1D4B984208D140200121FFF7F4FD4B
:1024480040200021FFF7F0FD08BD184B984208D145
:1024580080200121FFF7E8FD80200021FFF7E4FD3F
:1024680008BD134B984209D14FF480700121FFF742
:10247800DBFD4FF480700021FFF7D6FD08BD00BFDB
:10248800000001400004004000080040000C00402B
:1024980000100040001400400004014000400140CA
:1024A800004401400048014000180040001C004062
:1024B8000020004003889BB21B4A904212D002F5CC
:1024C800806290420ED0B0F1804F0BD0A2F58032DE
:1024D800904207D002F58062904203D002F58062F4
:1024E800904203D123F070034A8813430F4A904265
:1024F80008D002F58062904204D023F440739BB266
:102508000A89134303804B68C3620B880385064B13
:10251800984203D003F58063984201D18B7A0386F1
:1025280001238382704700BF000001400010004073
:102538004FF0FF334360002303800381438083729D
:10254800704700BF01858282704700BF038823F06F
:1025580070031B041B0C19430180704741627047CC
:10256800C1627047406A7047008D80B2704700BFF3
:1025780029B103889BB243F00203038070470388A4
:1025880023F002031B041B0C0380704729B1038846
:102598009BB243F0040303807047038823F00403CD
:1025A8001B041B0C0380704729B103889BB243F0BE
:1025B800800303807047038823F080031B041B0CEF
:1025C80003807047038823F008031B041B0C038057
:1025D80003889BB219430180704700BF038823F426
:1025E80040731B041B0C038003889BB219430180B2
:1025F800704700BF29B103889BB243F001030380F1
:102608007047038823F001031B041B0C03807047E9
:1026180030B4038C23F001031B041B0C0384038CCC
:102628008488A4B2028B22F073021204120C0D8863
:102638002A4323F002031B041B0C8D892B434D886E
:102648002B430E4DA84203D005F58065A8420DD155
:1026580023F00803CD892B4323F004038D882B43F3
:1026680024F440740D8A2C434D8A2C4384800283C1
:102678008A684263038430BC704700BF0000014091
:1026880030B4038C23F010031B041B0C0384038C4D
:102698008488A4B2028B22F4E6421204120C0D883C
:1026A8002D02ADB22A4323F020031B041B0C8D8995
:1026B8002D01ADB22B434D882D01ADB22B43124DE8
:1026C800A84203D005F58065A84215D123F0800300
:1026D800CD892D01ADB21D4325F040058B881B0126
:1026E8009BB22B4324F440640D8AAD00ADB2254360
:1026F8004C8AA400A4B22C43848002838A68826333
:10270800038430BC704700BF0000014030B4038C24
:1027180023F480731B041B0C0384038C8488A4B2E9
:10272800828B22F073021204120C0D882A4323F4C0
:1027380000731B041B0C8D892D02ADB22B434D88F1
:102748002D02ADB22B43124DA84203D005F580658A
:10275800A84215D123F40063CD892D02ADB21D43E3
:1027680025F480658B881B029BB22B4324F44054CC
:102778000D8A2D01ADB225434C8A2401A4B22C4305
:10278800848082838A68C263038430BC704700BF38
:102798000000014030B4038C23F480531B041B0C4D
:1027A8000384038C8488A4B2828B22F4E642120448
:1027B800120C0D882D02ADB22A4323F400531B04DA
:1027C8001B0C8D892D03ADB22B434D882D03ADB263
:1027D8002B430A4DA84203D005F58065A84205D1D0
:1027E80024F480440D8AAD01ADB22C4384808283E9
:1027F8008A680264038430BC704700BF000001404F
:10280800002303804380838083608381C3810382A4
:102818004382704730B400F1180301248C40058CC2
:10282800E443A4B22C40048409B108290AD1490818
:10283800C85820F070000004000CC850C858024363
:10284800CA500DE00439C1F34E01C85820F4E040E5
:102858000004000CC850C858120292B20243CA5071
:1028680030BC70474163704781637047C1637047EC
:1028780001647047038B23F070031B041B0C19437E
:1028880001837047038B23F4E0431B041B0C0902EC
:1028980089B20B4303837047838B23F070031B04B7
:1028A8001B0C194381837047838B23F4E0431B047B
:1028B8001B0C090289B20B4383837047038B23F0F7
:1028C80008031B041B0C194301837047038B23F473
:1028D80000631B041B0C090289B20B430383704776
:1028E800838B23F008031B041B0C19438183704757
:1028F800838B23F400631B041B0C090289B20B436E
:1029080083837047038B23F004031B041B0C1943B8
:1029180001837047038B23F480631B041B0C09029B
:1029280089B20B4303837047838B23F004031B0492
:102938001B0C194381837047838B23F480631B042A
:102948001B0C090289B20B4383837047038B23F066
:1029580080031B041B0C194301837047038BC3F3CB
:102968000E03090289B20B4303837047838B23F05C
:1029780080031B041B0C194381837047838BC3F3AB
:102988000E03090289B20B4383837047038C23F03B
:1029980002031B041B0C194301847047038C23F0AA
:1029A80008031B041B0C194301847047038C23F094
:1029B80020031B041B0C090189B20B4303847047D5
:1029C800038C23F080031B041B0C090189B20B4301
:1029D80003847047038C23F400731B041B0C090247
:1029E80089B20B4303847047038C23F400631B04F0
:1029F8001B0C090289B20B4303847047038C23F430
:102A080000531B041B0C090389B20B430384704752
:102A180010B401238B40048CDB439BB22340038416
:102A2800038C8A4013439BB203845DF8044B7047C0
:102A380010B404238B40048CDB439BB223400384F3
:102A4800038C8A4013439BB203845DF8044B7047A0
:102A580000230380438001228280C3800381704762
:102A6800406B7047806B7047C06B7047006C704755
:102A7800038B23F00C031B041B0C0383038B9BB2F7
:102A880019430183704700BF038B23F440631B0481
:102A98001B0C0383038B9BB2090289B20B4303838C
:102AA800704700BFF8B505460C46498809B90227A2
:102AB80000E00027A388012B01D1022600E00126AF
:102AC80022889AB928461A462389FFF7ADFB28467B
:102AD800E188FFF7CDFF2846394632462389FFF7BC
:102AE800BFFB2846E188FFF7CFFFF8BD28461A4606
:102AF8002389FFF7B5FB2846E188FFF7C5FF28467D
:102B0800394632462389FFF78FFB2846E188FFF7CD
:102B1800AFFFF8BD838B23F00C031B041B0C8383CE
:102B2800838B9BB219438183704700BF838B23F447
:102B380040631B041B0C8383838B9BB2090289B2FD
:102B48000B438383704700BF38B505460C460B8896
:102B58004BB94988A2882389FFF766FB2846E18894
:102B6800FFF786FF38BD042B09D14988A28823893D
:102B7800FFF776FB2846E188FFF786FF38BD082B6C
:102B880009D14988A2882389FFF78AFB2846E1886A
:102B9800FFF7C0FF38BD4988A2882389FFF79EFB4D
:102BA8002846E188FFF7C2FF38BD00BFF0B4B1F88E
:102BB80000C04B888F88CE880D894C898A894CEA59
:102BC80003033B4333432B4323431343A0F84430CD
:102BD800F0BC70470023038043808380C380038157
:102BE80043818381704700BF49B1B0F844306FEA30
:102BF80043436FEA53439BB2A0F844307047B0F8A0
:102C08004430C3F30E03A0F84430704729B18388D9
:102C18009BB243F0040383807047838823F0040346
:102C28001B041B0C8380704729B183889BB243F037
:102C3800010383807047838823F001031B041B0C66
:102C48008380704722B183899BB219438181704781
:102C58008389C94389B2194081817047818270474D
:102C6800038A194201D0012070470020704700BF35
:102C7800C94389B201827047038A82890A4019428E
:102C880002D01AB900207047002070470120704711
:102C9800C94389B2018270470A43A0F848207047A7
:102CA80022B183899BB21943818170478389C943C3
:102CB80089B219408181704729B183889BB243F05A
:102CC800080383807047838823F008031B041B0CC8
:102CD80083807047038923F007031B041B0C0381BF
:102CE800704700BF038923F070031B041B0C1943B2
:102CF8000181704710B50446FFF7F4FF23899BB2A2
:102D080043F00703238110BD38B504460D466029FA
:102D180004D111460122FFF7A3FA03E0114601226C
:102D2800FFF782FA20462946FFF7DCFF23899BB28A
:102D380043F00703238138BD838823F070031B0405
:102D48001B0C838083889BB219438180704700BF26
:102D5800038923F007031B041B0C038103899BB21F
:102D680019430181704700BF038923F080031B04C6
:102D78001B0C038103899BB219430181704700BF73
:102D880010B40489E4B21B029BB21A4311430C43EA
:102D980004815DF8044B704710B50446FFF7F0FF57
:102DA800238923F077031B041B0C43F0770323814B
:102DB80010BD00BF10B50446FFF7E2FF23899BB2A0
:102DC80043F48043238110BD70B40489068BB6B2E6
:102DD800058C24F007042404240C214326F44076AF
:102DE80026F0030646F4807646F0010625F0220513
:102DF8002D042D0C1B019BB21A4315430181068338
:102E0800058470BC704700BF29B183889BB243F02A
:102E1800800383807047838823F080031B041B0C86
:102E280083807047A0F85010704700BF08B5284B42
:102E3800984208D110200121FFF704F91020002141
:102E4800FFF700F908BD234B98420AD14FF4003030
:102E58000121FFF7E9F84FF400300021FFF7E4F80B
:102E680008BD1D4B98420AD14FF480200121FFF77D
:102E7800DBF84FF480200021FFF7D6F808BD174B88
:102E880098420AD14FF400200121FFF7CDF84FF402
:102E980000200021FFF7C8F808BD114B98420AD15D
:102EA8004FF480100121FFF7BFF84FF48010002184
:102EB800FFF7BAF808BD0B4B984207D12020012133
:102EC800FFF7C0F820200021FFF7BCF808BD00BFBD
:102ED800001001400044004000480040004C004001
:102EE800005000400014014030B585B004460D463E
:102EF800038A9BB223F44053CA881343038282890E
:102F080092B222F4B05222F00C0288880B894989C7
:102F180003430B431343A381A38A9BB223F4407357
:102F2800AA891343A3826846FEF788FF1F4B9C4279
:102F380003D003F580639C4201D1039A00E0029A12
:102F4800A3891BB2002B08DA02EB820202EB820291
:102F58002B685B00B2FBF3F207E002EB820202EBA4
:102F6800820229688900B2FBF1F2114BA3FB02131C
:102F78005B091801642103FB1123A18909B2002907
:102F880008DADB0032330A4DA5FB0323C3F34213EF
:102F9800034307E01B013233054DA5FB0313C3F3BD
:102FA800431303439BB2238105B030BD0010014099
:102FB8001F85EB514FF41653036000238380C380B1
:102FC80003810C2242818381704700BF30B4028A9A
:102FD80092B222F470620D884B888C88C9882B4382
:102FE80023430B431343038230BC70470023038001
:102FF80043808380C380704729B183899BB243F49F
:10300800005383817047838923F400531B041B0CEE
:1030180083817047038B03F47F430383038B9BB245
:1030280019430183704700BF39B183896FEA43436D
:103038006FEA53439BB2838170478389C3F30E03BE
:103048008381704729B1838A9BB243F400638382EA
:103058007047838A23F400631B041B0C8382704728
:10306800C1F30801818070478088C0F30800704769
:10307800038A23F00F031B041B0C0382038A9BB2F1
:1030880019430182704700BF29B183899BB243F07D
:10309800020383817047838923F002031B041B0CFE
:1030A80083817047838923F400631B041B0C83818D
:1030B80083899BB219438181704700BF038A23F03B
:1030C80020031B041B0C0382038A9BB21943018251
:1030D800704700BF29B1038A9BB243F4804303823F
:1030E8007047038A23F480431B041B0C0382704738
:1030F80083899BB243F001038381704729B1838A96
:103108009BB243F0080383827047838A23F0080345
:103118001B041B0C83827047038BDBB20383038B76
:103128009BB243EA01210183704700BF29B1838A1A
:103138009BB243F0200383827047838A23F02003E5
:103148001B041B0C8382704729B1838A9BB243F00E
:10315800100383827047838A23F010031B041B0C1F
:1031680083827047838A23F004031B041B0C838229
:10317800838A9BB219438182704700BF29B1838A31
:103188009BB243F0020383827047838A23F00203D1
:103198001B041B0C8382704722B1838A9BB219439C
:1031A80081827047838AC94389B2194081827047F6
:1031B80010B4C1F3421301F01F01012404FA01F114
:1031C800A34201D10C3004E0022B01D1103000E001
:1031D80014301AB103681943016003E0036823EA55
:1031E800010101605DF8044B704700BF0388194274
:1031F80001D0012070470020704700BFC94389B241
:103208000180704710B4C1F3421301F01F0201247A
:103218009440012B03D1828992B2224008E0022B0C
:1032280003D1028A92B2224002E0828A92B22240FC
:10323800090A012303FA01F103889BB2194012B16C
:1032480019B9002002E0002000E001205DF8044BDD
:10325800704700BF090A01238B40DB439BB2038000
:10326800704700BF30B583B004460E4D55F82000B6
:103278000121FEF769FE05EB44052B8A0093012323
:103288008DF8043000228DF806208DF807300223CF
:103298008DF80530044B53F824006946FEF76EFCA0
:1032A80003B030BDF833000828000020044B53F861
:1032B8002030044A02EB4000028A1A83704700BF9C
:1032C80028000020F8330008044B53F82030044A43
:1032D80002EB4000028A5A83704700BF2800002092
:1032E800F8330008054B53F820305969044A02EBBB
:1032F8004000028A4A405A61704700BF28000020F7
:10330800F833000830B587B005460C460120014661
:10331800FEF71AFE4FF480400121FEF74DFE002310
:103328008DF814308DF8173006A9012241F8082DC0
:10333800134A02EB85052869FEF720FC012C1DD1F4
:1033480000200146FEF73EFF029400238DF80C3062
:1033580008238DF80D308DF80E400DEB0300FEF7B5
:103368000DFB06238DF804300F238DF805308DF8FA
:1033780006308DF8074001A8FDF7AEFE07B030BD56
:103388002800002008B5044B03EB800000690121E8
:10339800FEF758FC08BD00BF28000020002100F0FF
:1033A80004B80C4B5B58435004310B480B4B421884
:1033B8009A42FFF4F6AF0A4A00F003B8002342F835
:1033C800043B084B9A42FFF4F9AFFDF709FEFDF7FD
:1033D800AFFB704750350008000000203C0000207B
:1033E8003C000020900C0020FFF7FEBF0040145462
:1033F80008000000080000000800000008000000A5
:1034080000100020004000800600000000000000BE
:1034180000000000010000000100000001000000A1
:1034280030313233343536373839414243444546F2
:10343800000000004F7574707574204F4E0A00002C
:103448004F7574707574204F46460A002C20493A0F
:10345800000000000A0000004F4B0A00536574206A
:10346800553A00002C2053657420493A00000000AA
:10347800504330204F4E0A00504330204F46460AF2
:1034880000000000556E6B6E6F776E20636F6D6D78
:10349800616E640A000000000A5377697463686902
:1034A8006E6720506F77657220536F757263652061
:1034B80057656C636F6D650A000000004E4D495FEB
:1034C800457863657074696F6E00000048617264C6
:1034D8004661756C745F457863657074696F6E00DA
:1034E8004D656D4D616E6167655F457863657074A4
:1034F800696F6E004275734661756C745F457863D9
:10350800657074696F6E0000557361676546617513
:103518006C745F457863657074696F6E00000000B5
:1035280044656275674D6F6E5F4578636570746951
:103538006F6E000050656E645356435F457863654F
:083548007074696F6E00000051
:103550007C4CE001007A030A00000000000000003B
:103560000102030406070809000000000102030429
:103570000102030406070809000C0240000C024087
:0C358000000C0240000C02400000024061
:04000005080033A517
:00000001FF
