:020000040800F2
:1000000000000220390C00080D020008110200084F
:1000100015020008190200081D0200080000000077
:1000200000000000000000000000000021020008A5
:1000300025020008000000002902000871020008E3
:10004000850C0008850C0008850C0008850C00084C
:10005000850C0008850C00082D020008850C00089E
:10006000850C0008850C0008850C0008850C00082C
:10007000850C0008850C0008850C0008850C00081C
:10008000850C0008850C0008850C0008850C00080C
:10009000850C0008850C0008850C0008850C0008FC
:1000A000850C0008850C0008850C0008850C0008EC
:1000B000850C0008850C0008850C0008850C0008DC
:1000C000850C0008850C0008850C0008850C0008CC
:1000D000850C0008850C0008850C0008850C0008BC
:1000E000850C0008850C0008850C0008850C0008AC
:1000F000850C0008850C0008850C0008850C00089C
:10010000850C0008850C0008850C0008850C00088B
:10011000850C0008850C0008850C0008850C00087B
:10012000850C0008850C0008850C0008850C00086B
:10013000850C0008850C0008850C0008850C00085B
:10014000850C0008850C0008850C0008850C00084B
:10015000850C0008850C0008850C0008850C00083B
:10016000850C0008850C0008850C0008850C00082B
:10017000850C0008850C0008850C0008850C00081B
:08018000850C0008850C000845
:1001880000B583B00820012100F02CFC4FF4704327
:10019800009300238DF8063001228DF804208DF895
:1001A800073003238DF805300348694600F040FA0C
:1001B80003B05DF804FB00BF000C024008B50C4B0F
:1001C8001A680C4BA3FB02129209013A0A4B5A60B7
:1001D800F0210A4A82F8231000229A6007221A6046
:1001E800FFF7CEFF4FF4A042054B1A83FEE700BF8E
:1001F80000000020D34D621010E000E000ED00E0A8
:10020800000C0240704700BFFEE700BFFEE700BFDA
:10021800FEE700BFFEE700BF704700BF704700BFA2
:10022800704700BF08B5012000F06CF910B101203B
:1002380000F076F908BD00BF82B00190019A044B26
:100248001A601A461368002BFCD102B0704700BF31
:1002580024000020034B1B681BB1024B1A68013AAB
:100268001A6070472400002008B5054B1B680BB1C5
:10027800FFF7F0FF034B1A6801321A6008BD00BF90
:10028800240000202800002082B00023019300935E
:10029800294B1A6842F480321A601A46136803F42C
:1002A80000330093019B01330193009B1BB9019B11
:1002B800B3F5A06FF2D1204B1B6813F4003F14BFB5
:1002C800012300230093009B012B32D11A4B1A6C97
:1002D80042F080521A64194A116841F48041116051
:1002E8009A689A609A6842F400429A609A6842F45E
:1002F800A0529A60124A5A601A6842F080721A60D4
:100308001A46136813F0007FFBD040F205620D4BCC
:100318001A60A3F580639A6822F003029A609A68CB
:1003280042F002029A601A46936803F00C03082B05
:10033800FAD102B0704700BF003802400070004098
:1003480008544007003C024008B50D4B1A6842F0BB
:1003580001021A60002199601A6822F0847222F45E
:1003680080321A60074A5A601A6822F480221A609A
:10037800D960FFF789FF4FF00062034B9A6008BD10
:10038800003802401030002400ED00E01E4B9B684E
:1003980003F00C03042B06D0082B08D023BB1B4A00
:1003A8001B4B1A6023E01B4A194B1A601FE0164BBF
:1003B80059685B6803F03F0311F4800F14BF154AB6
:1003C800124AB2FBF3F3104A5268C2F3881202FBD6
:1003D80003F20D4B5B68C3F3014301335B00B2FBCF
:1003E800F3F20B4B1A6002E0084A094B1A60064BFD
:1003F8009A68C2F30312064B1A441179C9B21A68F3
:10040800CA401A60704700BF003802400024F40058
:100418000000002000127A00044B00221A605A6083
:100428009A60DA60024A5A61704700BF003C014096
:10043800FFFF7F0010B48379002B33D0204B19685D
:10044800026821EA02021A605968026821EA020277
:100458005A60027902F1804202F59E3214680168FE
:10046800214311609968026821EA02029A60D968FA
:10047800026821EA0202DA604379102B09D1104B95
:10048800996802680A439A60D96802680A43DA6080
:1004980012E003F1804303F59E33196802680A43AA
:1004A8001A6009E0037903F1804303F59E331A6863
:1004B800016822EA01021A605DF8044B704700BF28
:1004C800003C01400023036003710C2242718371D8
:1004D800704700BF024B1A6910431861704700BF8C
:1004E800003C0140034B5B691840003018BF0120F5
:1004F800704700BF003C0140014B5861704700BF86
:10050800003C0140054B1A6802405B69034203D076
:10051800101C18BF0120704700207047003C0140A4
:10052800014B5861704700BF003C014008B5374B8C
:10053800984208D10120014600F09AFA01200021D2
:1005480000F096FA08BD324B984208D102200121EA
:1005580000F08EFA0220002100F08AFA08BD2D4B27
:10056800984208D10420012100F082FA04200021D9
:1005780000F07EFA08BD284B984208D108200121D6
:1005880000F076FA0820002100F072FA08BD234B2B
:10059800984208D11020012100F06AFA10200021A9
:1005A80000F066FA08BD1E4B984208D120200121B0
:1005B80000F05EFA2020002100F05AFA08BD194B1D
:1005C800984208D14020012100F052FA4020002131
:1005D80000F04EFA08BD144B984208D18020012142
:1005E80000F046FA8020002100F042FA08BD0F4BC7
:1005F800984209D14FF48070012100F039FA4FF484
:100608008070002100F034FA08BD00BF00000240ED
:100618000004024000080240000C024000100240A2
:100628000014024000180240001C02400020024052
:10063800F0B40023012503263EE005FA03F20C6816
:100648001440944237D107685A0006FA02F4E4438A
:1006580027400760D0F800C00F7997404CEA070799
:1006680007600F79013FFFB2012F16D887683C4019
:10067800846087684C7994403C43846047689CB2A6
:1006880005FA04FC27EA0C074760476891F806C09A
:100698000CFA04F4A4B23C434460C7689CB26400FA
:1006A80006FA04F427EA0404C460C468CF7907FA98
:1006B80002F22243C26001330F2BBED9F0BC70474F
:1006C8004FF6FF7303600023037143718371C37195
:1006D800704700BF82B04FF480330193019B0B43F6
:1006E8000193019BC361C161019BC361C36901930C
:1006F800C369019302B0704700690840003018BF11
:1007080001207047006980B2704700BF4069084007
:10071800003018BF01207047406980B2704700BFA1
:1007280001837047418370470AB101837047418351
:10073800704700BF41617047436959404161704744
:1007480030B401F007039B009A40C908083150F8FB
:1007580021400F2505FA03F324EA030340F821306A
:1007680050F821301A4340F8212030BC704700BFB0
:100778000A4B1A6842F001021A60002199601A684F
:1007880022F0847222F480321A60054A5A601A688C
:1007980022F480221A60D960704700BF00380240F6
:1007A80010300024024B00221A701870704700BFE6
:1007B80002380240034B1A6822F0F80242EAC000ED
:1007C8001860704700380240014B1860704700BF3E
:1007D80000004742084B00221A701A70012802D004
:1007E800042804D070470122034B1A707047052271
:1007F800014B1A70704700BF70380240014B1860F7
:10080800704700BF800E474241EA82125B08013BF5
:1008180042EA03421043009B40EA036301494B60EC
:10082800704700BF00380240014B1860704700BF96
:1008380060004742090741EA8010024BC3F8840070
:10084800704700BF00380240014B1860704700BF76
:1008580068004742014B1860704700BF4C00474290
:10086800034B9A6822F0EC6201430A439A6070478E
:1008780000380240034B9A6822F0784201430A4349
:100888009A60704700380240034B9A6822F00302CE
:1008980010439860704700BF00380240024B9868C8
:1008A80000F00C00704700BF00380240034B9A6804
:1008B80022F0F00210439860704700BF00380240F1
:1008C800034B9A6822F4E05210439860704700BFC7
:1008D80000380240034B9A6822F4604242EAC000A2
:1008E800986070470038024010B4254B9B6803F0AD
:1008F8000C03042B05D0082B06D00BBB214B03603F
:1009080020E0214B03601DE01D4B5A685B6803F033
:100918003F0312F4800F14BF1B4A1A4AB2FBF3F3C9
:10092800174A5268C2F3881202FB03F3144A52684A
:10093800C2F3014201325200B3FBF2F3036001E05B
:10094800104B03600E498B68C3F303130F4AD35C43
:10095800DBB2046824FA03F343608C68C4F382248E
:10096800145DE4B223FA04F484608968C1F3423167
:10097800525CD2B2D340C3605DF8044B704700BFED
:10098800003802400024F40000127A00140000200D
:1009980000F44073B3F5407F09D1084A916821F407
:1009A800F81120F0704323F440730B439360034B1A
:1009B8001A6FC0F30B0010431867704700380240E5
:1009C800014B1860704700BF3C0E4742014B18604E
:1009D800704700BF400E4742014B1860704700BF88
:1009E8005C01474221B1054B1A6B104318637047ED
:1009F800024B1A6B22EA0000186370470038024065
:100A080021B1054B5A6B104358637047024B5A6B20
:100A180022EA0000586370470038024021B1054BB4
:100A28009A6B104398637047024B9A6B22EA000056
:100A3800986370470038024021B1054B1A6C104387
:100A480018647047024B1A6C22EA00001864704759
:100A58000038024021B1054B5A6C10435864704766
:100A6800024B5A6C22EA0000586470470038024072
:100A780021B1054B1A69104318617047024B1A6976
:100A880022EA0000186170470038024021B1054B86
:100A98005A69104358617047024B5A6922EA0000AC
:100AA800586170470038024021B1054B9A691043DC
:100AB80098617047024B9A6922EA00009861704772
:100AC8000038024021B1054B1A6A1043186270477A
:100AD800024B1A6A22EA0000186270470038024086
:100AE80021B1054B5A6A104358627047024B5A6A43
:100AF80022EA0000586270470038024021B1054BD5
:100B08001A6D104318657047024B1A6D22EA0000EF
:100B1800186570470038024021B1054B5A6D1043E3
:100B280058657047024B5A6D22EA000058657047B5
:100B38000038024021B1054B9A6D10439865704703
:100B4800024B9A6D22EA000098657047003802400F
:100B580021B1054B1A6E104318667047024B1A6E86
:100B680022EA0000186670470038024021B1054BA0
:100B78005A6E104358667047024B5A6E22EA0000BC
:100B8800586670470038024021B1054B1A78104367
:100B980018707047024B1A7822EA000018707047E4
:100BA8000D3802404309012B02D1074B1B6804E0B2
:100BB800022B054B0CBF1B6F5B6F00F01F0023FA65
:100BC80000F000F0010070470038024010B582B014
:100BD8000023019331242046FFF7E4FF019B0133F2
:100BE8000193019BB3F5A06F01D00028F3D0312009
:100BF800FFF7D8FF003018BF012002B010BD00BFBA
:100C0800024B5A6F42F080725A67704700380240B0
:100C1800034BDB681840003018BF0120704700BF45
:100C280000380240014B1870704700BF0E38024070
:100C3800002100F004B80C4B5B58435004310B48BA
:100C48000B4B42189A42FFF4F6AF0A4A00F003B879
:100C5800002342F8043B084B9A42FFF4F9AFFFF730
:100C680073FBFFF7ABFA7047880C00080000002000
:100C780024000020240000202C000020FFF7FEBFE5
:100C8800007A030A000000000000000001020304CB
:100C9800060708090000000001020304010203041A
:040CA800060708092A
:0400000508000C39AA
:00000001FF
