:020000040800F2
:100000000000022075150008D9020008DD02000872
:10001000E1020008E5020008E90200080000000013
:10002000000000000000000000000000ED020008D9
:10003000F102000800000000F50200083D0300087E
:10004000C1150008C1150008C1150008C115000838
:10005000C1150008C1150008F9020008C115000803
:10006000C1150008C1150008C1150008C115000818
:10007000C1150008C1150008C1150008C115000808
:10008000C1150008C1150008C1150008C1150008F8
:10009000C1150008C1150008C1150008C1150008E8
:1000A000C1150008C1150008C1150008C1150008D8
:1000B000C1150008C1150008C1150008C1150008C8
:1000C000C1150008C1150008C1150008C1150008B8
:1000D000C1150008C1150008C1150008C1150008A8
:1000E000C1150008C1150008C1150008C115000898
:1000F000C1150008C1150008C1150008C115000888
:10010000C1150008C1150008C1150008C115000877
:10011000C1150008C1150008C1150008C115000867
:10012000C1150008C1150008C1150008C115000857
:10013000C1150008C1150008C1150008C115000847
:10014000C1150008C1150008C1150008C115000837
:10015000C1150008C1150008C1150008C115000827
:10016000C1150008C1150008C1150008C115000817
:10017000C1150008C1150008C1150008C115000807
:08018000C1150008C1150008BB
:1001880000B583B00820012101F0CAF84FF470438C
:10019800009301238DF8043000238DF806308DF884
:1001A800073003238DF805300348694600F0DEFE6A
:1001B80003B05DF804FB00BF000C024030B58BB003
:1001C8004FF08060012101F0D5F80220012101F0F3
:1001D800A7F8294D28460521092200F04FFF284697
:1001E8000621092200F04AFF6023089302238DF8B4
:1001F800243000248DF826408DF8274003238DF8FD
:100208002530284608A900F0B1FE8DF81B408DF86E
:100218001C4005238DF8183007238DF81930012369
:100228008DF816308DF81D401022ADF814208DF889
:100238001E408DF817408DF81A408DF81F400E2289
:100248008DF80E208DF80F408DF81030ADF8044071
:10025800ADF80640ADF80840ADF80A40ADF80C40DE
:100268008DF8113001A800F0D5F9044805A900F06F
:100278005BF90BB030BD00BF0004024000680040CD
:1002880008B50D4B1A680D4BA3FB02129209013AEF
:100298000B4B5A60F0210B4A82F8231000229A6017
:1002A80007221A60FFF76CFF4FF48052064B1A833F
:1002B800FFF784FFFEE700BF00000020D34D621067
:1002C80010E000E000ED00E0000C0240704700BFC5
:1002D800704700BFFEE700BFFEE700BFFEE700BFB4
:1002E800FEE700BF704700BF704700BF704700BF00
:1002F80008B5012000F0A4FD10B1012000F0AEFD0A
:1003080008BD00BF82B00190019A044B1A601A46DA
:100318001368002BFCD102B0704700BF24000020F6
:10032800034B1B681BB1024B1A68013A1A607047ED
:100338002400002008B5054B1B680BB1FFF7F0FF40
:10034800034B1A6801321A6008BD00BF2400002060
:100358002800002082B0002301930093294B1A68DB
:1003680042F480321A601A46136803F4003300938B
:10037800019B01330193009B1BB9019BB3F5A06F4F
:10038800F2D1204B1B6813F4003F14BF0123002354
:100398000093009B012B32D11A4B1A6C42F0805209
:1003A8001A64194A116841F4804111609A689A6088
:1003B8009A6842F400429A609A6842F4A0529A609D
:1003C800124A5A601A6842F080721A601A46136814
:1003D80013F0007FFBD040F205620D4B1A60A3F5C5
:1003E80080639A6822F003029A609A6842F00202D7
:1003F8009A601A46936803F00C03082BFAD102B0EE
:10040800704700BF003802400070004008544007A1
:10041800003C024008B50D4B1A6842F001021A6010
:10042800002199601A6822F0847222F480321A60DE
:10043800074A5A601A6822F480221A60D960FFF7C6
:1004480089FF4FF00062034B9A6008BD00380240F4
:100458001030002400ED00E01E4B9B6803F00C03F5
:10046800042B06D0082B08D023BB1B4A1B4B1A6051
:1004780023E01B4A194B1A601FE0164B59685B684A
:1004880003F03F0311F4800F14BF154A124AB2FB60
:10049800F3F3104A5268C2F3881202FB03F20D4BC1
:1004A8005B68C3F3014301335B00B2FBF3F20B4B10
:1004B8001A6002E0084A094B1A60064B9A68C2F3B0
:1004C8000312064B1A441179C9B21A68CA401A6055
:1004D800704700BF003802400024F40000000020EC
:1004E80000127A000840003018BF0120704700BF92
:1004F80008B50C4B98420AD14FF00070012100F06A
:100508007FFF4FF00070002100F07AFF08BD4FF028
:100518008060012100F074FF4FF08060002100F03E
:100528006FFF08BD0064004010B4036823F00203A5
:100538000360036843F00103036000234FF6FF7470
:1005480000E00133426812F0010F01D1A342F8D153
:10055800436813F0010F59D08B79012B03680CBF46
:1005680043F0800323F080030360CB79012B0368F9
:100578000CBF43F0400323F0400303600B7A012BC8
:1005880003680CBF43F0200323F0200303604B7A79
:10059800012B03680CBF43F0100323F01003036022
:1005A8008B7A012B03680CBF43F0080323F0080380
:1005B8000360CB7A012B03680CBF43F0040323F0DC
:1005C800040303608A78CB781B0643EA82730A79AE
:1005D80043EA02434A7943EA02520B88013B134338
:1005E800C361036823F00103036000234FF6FF7122
:1005F80000E00133426812F0010F01D08B42F8D1BC
:10060800406800F0010080F0010000E000205DF883
:10061800044B704770B4837A01219940384BD3F862
:10062800002242F00102C3F80022D3F81C42CA4358
:100638001440C3F81C42037BB3B9314BD3F80C42C6
:100648001440C3F80C42847AC688458845EA0645B2
:10065800483443F83450857A8688048844EA064446
:10066800483503EBC5035C60037B012B16D1244B93
:10067800D3F80C420C43C3F80C42847A06884588A8
:1006880045EA0645483443F83450857A8688C48854
:1006980044EA0644483503EBC5035C60C37A33B9C2
:1006A800174BD3F804421440C3F8044205E0144B36
:1006B800D3F804420C43C3F8044203892BB9104B06
:1006C800D3F814422240C3F814220389012B05D120
:1006D8000B4BD3F814220A43C3F81422437B012B93
:1006E80005D1074BD3F81C221143C3F81C12044B45
:1006F800D3F8002222F00102C3F8002270BC704730
:100708000064004000238371C371037243728372D3
:10071800C3728370C37003230371022343710123DF
:10072800038070470D4BD3F8002242F00102C3F852
:100738000022D3F8002222F47C5222F00E02C3F8E1
:100748000022D3F8002242EA0020C3F80002D3F8BE
:10075800002222F00102C3F8002270470064004022
:1007680021B1036843F4803303607047036823F4BE
:1007780080330360704700BFB1B1036843F0800362
:100788000360D0F8843143F48073C0F88431D0F822
:10079800943143F48073C0F89431D0F8A43143F411
:1007A8008073C0F8A4317047036823F080030360A6
:1007B800D0F8843123F48073C0F88431D0F89431B0
:1007C80023F48073C0F89431D0F8A43123F48073F3
:1007D800C0F8A431704700BFF0B40346826812F035
:1007E800806F0BD1826812F0006F09D1826802F025
:1007F8008052002A0CBF0420022002E0002000E002
:100808000120042850D0054600F1180212019C5816
:1008180004F001049C500A7A52B900F1180212013E
:100828009E580C684F7A47EA445434439C500CE075
:1008380000F1180424011F594E6842EAC60291F8D3
:1008480009C042EA0C023A431A518A7A02F00F02AE
:100858008A7205F1180424011A19566826F00F0641
:10086800566057688E7A3E4356608A7B4E7B3604C4
:1008780046EA02660A7B46EA0226CA7A164303EB70
:10088800051202F5C475C2F888618E7C4A7C120490
:1008980042EA06620E7C42EA0622C97B0A436A6083
:1008A8001A5942F001021A51F0BC704701290DD0C3
:1008B80011B102290ED015E0836823F07B4323F49D
:1008C8007F0323F47F4323F0FC030CE08268114B81
:1008D800134008E0836823F06F4323F47C031B0C68
:1008E8001B0400E000230C4A93420BD001D83BB113
:1008F8000EE0084A934207D0084A934206D007E020
:10090800022070470120704701207047012070477E
:1009180000207047000300080300000400000310D3
:10092800012908D011B102290AD07047836843F021
:10093800800383607047836843F400438360704793
:10094800836843F400038360704700BF30B401F14B
:100958001B031B01C35803F00403DBB2137233B942
:1009680001F11B031B01C3585B0D136005E001F186
:100978001B031B01C358DB08536001F11B0424014E
:100988000319045904F0020454725C6804F00F045B
:1009980094725B681B0AD37400EB011303F5DC74D3
:1009A800D3F8B851D572D3F8B8512D0A1573D3F8C6
:1009B800B8512D0C5573D3F8B8311B0E9373636877
:1009C800D37363681B0A137463681B0C53746368DE
:1009D8001B0E937421B9C36843F02003C36003E07E
:1009E800036943F02003036130BC704721B9C36831
:1009F80043F02003C3607047036943F02003036199
:100A0800704700BF19B9C06800F00300704701299A
:100A180006BF006900F0030000207047C1B90368F1
:100A280023F0030343F0010303604FF6FF7300E074
:100A3800013B426802F00302012A01D0002BF7D1E2
:100A4800406800F00300012814BF0020012070470F
:100A5800012915D1036823F0030303604FF6FF73E0
:100A680000E0013B426812F0030F01D0002BF8D1DF
:100A7800406800F00300D0F1010038BF0020704743
:100A8800022918D1036823F0030343F0020303602B
:100A98004FF6FF7300E0013B426802F00302022AAE
:100AA80001D0002BF7D1406800F00300022814BFE2
:100AB8000020012070470020704700BF036823F022
:100AC800030343F002030360406800F003000228B8
:100AD80014BF002001207047036823F0020303605D
:100AE8004FF6FF7300E0013B426812F0020F01D09D
:100AF800002BF8D1406800F00200D0F1010038BFA7
:100B080000207047806900F0700070478069000E0F
:100B1800704700BF8069C0F3074070471AB1436946
:100B2800194341617047436923EA010141617047F4
:100B380011F4700F07D083691940C1F31301081C21
:100B480018BF0120704711F0807F07D0406801402E
:100B5800C1F31301081C18BF0120704711F0006F82
:100B680007D080680140C1F31301081C18BF012099
:100B7800704711F0007F14BFC06800690140C1F3DD
:100B88001301081C18BF0120704700BF0B4B994286
:100B980002D1002383617047C1F3130311F0007F72
:100BA80001D0C360704711F0806F01D003617047B6
:100BB80011F0006F14BF8360436070477000F0301D
:100BC80008B543690B426FD0402945D00ED8042997
:100BD8002ED004D8012921D0022924D066E010297A
:100BE80030D0202933D0082960D126E0B1F5006F34
:100BF80050D009D8B1F5007F42D0B1F5806F44D00C
:100C0800B1F5807F52D136E0B1F5803F29D0B1F5FA
:100C1800003F2BD0B1F5004F48D140E0806824490F
:100C2800FFF760FC08BDC0680321FFF75BFC08BD47
:100C3800C0680821FFF756FC08BDC0681021FFF7FF
:100C480051FC08BD00690321FFF74CFC08BD006991
:100C58000821FFF747FC08BD00691021FFF742FC97
:100C680008BD40680821FFF73DFC08BD4068102119
:100C7800FFF738FC08BD80690121FFF733FC08BD88
:100C880080690221FFF72EFC08BD80690421FFF767
:100C980029FC08BD80697021FFF724FC08BD406865
:100CA8000421FFF71FFC08BD002008BD002008BD77
:100CB80001010100B1F5807F37D00CD8082925D073
:100CC80004D801291CD004291DD07047202920D020
:100CD800402921D07047B1F5006F2FD006D8B1F563
:100CE800007F25D0B1F5806F25D07047B1F5803FE2
:100CF80015D0B1F5003F15D0B1F5004F27D122E04E
:100D0800134B836070470823C36070471023C36088
:100D18007047082303617047102303617047082355
:100D28004360704710234360704704234360704753
:100D380004234360704704234360704700238361A2
:100D48000423436070470023836104234360704792
:100D580001010100044B00221A605A609A60DA60AF
:100D6800024A5A61704700BF003C0140FFFF7F0004
:100D780010B48379002B33D0204B1968026821EA1C
:100D880002021A605968026821EA02025A6002796E
:100D980002F1804202F59E32146801682143116015
:100DA8009968026821EA02029A60D968026821EA11
:100DB8000202DA604379102B09D1104B9968026856
:100DC8000A439A60D96802680A43DA6012E003F1BC
:100DD800804303F59E33196802680A431A6009E0E4
:100DE800037903F1804303F59E331A68016822EA08
:100DF80001021A605DF8044B704700BF003C0140D7
:100E08000023036003710C2242718371704700BF95
:100E1800024B1A6910431861704700BF003C01403B
:100E2800034B5B691840003018BF0120704700BFB2
:100E3800003C0140014B5861704700BF003C014035
:100E4800054B1A6802405B69034203D0101C18BFA7
:100E58000120704700207047003C0140014B586159
:100E6800704700BF003C014008B5374B984208D195
:100E78000120014600F09AFA0120002100F096FABC
:100E880008BD324B984208D10220012100F08EFAA9
:100E98000220002100F08AFA08BD2D4B984208D1A3
:100EA8000420012100F082FA0420002100F07EFADB
:100EB80008BD284B984208D10820012100F076FA95
:100EC8000820002100F072FA08BD234B984208D18F
:100ED8001020012100F06AFA1020002100F066FAC3
:100EE80008BD1E4B984208D12020012100F05EFA6F
:100EF8002020002100F05AFA08BD194B984208D169
:100F08004020012100F052FA4020002100F04EFA62
:100F180008BD144B984208D18020012100F046FA00
:100F28008020002100F042FA08BD0F4B984209D1F9
:100F38004FF48070012100F039FA4FF480700021DD
:100F480000F034FA08BD00BF00000240000402406F
:100F580000080240000C0240001002400014024049
:100F680000180240001C024000200240F0B4002398
:100F7800012503263EE005FA03F20C68144094426A
:100F880037D107685A0006FA02F4E443274007609D
:100F9800D0F800C00F7997404CEA070707600F792F
:100FA800013FFFB2012F16D887683C4084608768EC
:100FB8004C7994403C43846047689CB205FA04FC31
:100FC80027EA0C074760476891F806C00CFA04F452
:100FD800A4B23C434460C7689CB2640006FA04F4B7
:100FE80027EA0404C460C468CF7907FA02F22243EE
:100FF800C26001330F2BBED9F0BC70474FF6FF73A8
:1010080003600023037143718371C371704700BF8C
:1010180082B04FF480330193019B0B430193019BF2
:10102800C361C161019BC361C3690193C369019332
:1010380002B0704700690840003018BF01207047AF
:10104800006980B2704700BF40690840003018BF8F
:1010580001207047406980B2704700BF0183704724
:10106800418370470AB1018370474183704700BFCD
:1010780041617047436959404161704730B401F09C
:1010880007039B009A40C908083150F821400F25F2
:1010980005FA03F324EA030340F8213050F821301D
:1010A8001A4340F8212030BC704700BF0A4B1A6829
:1010B80042F001021A60002199601A6822F08472D5
:1010C80022F480321A60054A5A601A6822F4802293
:1010D8001A60D960704700BF003802401030002401
:1010E800024B00221A701870704700BF0238024085
:1010F800034B1A6822F0F80242EAC00018607047F1
:1011080000380240014B1860704700BF000047429A
:10111800084B00221A701A70012802D0042804D043
:1011280070470122034B1A7070470522014B1A7051
:10113800704700BF70380240014B1860704700BF0D
:10114800800E474241EA82125B08013B42EA0342B1
:101158001043009B40EA036301494B60704700BF9E
:1011680000380240014B1860704700BF60004742DA
:10117800090741EA8010024BC3F88400704700BF9A
:1011880000380240014B1860704700BF68004742B2
:10119800014B1860704700BF4C004742034B9A68E8
:1011A80022F0EC6201430A439A607047003802401B
:1011B800034B9A6822F0784201430A439A607047C9
:1011C80000380240034B9A6822F0030210439860EB
:1011D800704700BF00380240024B986800F00C00CE
:1011E800704700BF00380240034B9A6822F0F002B3
:1011F80010439860704700BF00380240034B9A685C
:1012080022F4E05210439860704700BF0038024053
:10121800034B9A6822F4604242EAC0009860704723
:101228000038024010B4254B9B6803F00C03042BD4
:1012380005D0082B06D00BBB214B036020E0214BC7
:1012480003601DE01D4B5A685B6803F03F0312F40E
:10125800800F14BF1B4A1A4AB2FBF3F3174A5268AD
:10126800C2F3881202FB03F3144A5268C2F3014224
:1012780001325200B3FBF2F3036001E0104B03604C
:101288000E498B68C3F303130F4AD35CDBB20468BF
:1012980024FA03F343608C68C4F38224145DE4B237
:1012A80023FA04F484608968C1F34231525CD2B2F3
:1012B800D340C3605DF8044B704700BF003802405C
:1012C8000024F40000127A001400002000F4407397
:1012D800B3F5407F09D1084A916821F4F81120F04C
:1012E800704323F440730B439360034B1A6FC0F3AE
:1012F8000B0010431867704700380240014B186014
:10130800704700BF3C0E4742014B1860704700BF52
:10131800400E4742014B1860704700BF5C014742CE
:1013280021B1054B1A6B104318637047024B1A6BB7
:1013380022EA0000186370470038024021B1054BCB
:101348005A6B104358637047024B5A6B22EA0000ED
:10135800586370470038024021B1054B9A6B10431F
:1013680098637047024B9A6B22EA000098637047B3
:101378000038024021B1054B1A6C104318647047BD
:10138800024B1A6C22EA00001864704700380240C9
:1013980021B1054B5A6C104358647047024B5A6C84
:1013A80022EA0000586470470038024021B1054B1A
:1013B8001A69104318617047024B1A6922EA000043
:1013C800186170470038024021B1054B5A69104333
:1013D80058617047024B5A6922EA00005861704709
:1013E8000038024021B1054B9A6910439861704753
:1013F800024B9A6922EA000098617047003802405F
:1014080021B1054B1A6A104318627047024B1A6AD9
:1014180022EA0000186270470038024021B1054BEB
:101428005A6A104358627047024B5A6A22EA00000F
:10143800586270470038024021B1054B1A6D1043BD
:1014480018657047024B1A6D22EA0000186570474C
:101458000038024021B1054B5A6D1043586570475A
:10146800024B5A6D22EA0000586570470038024066
:1014780021B1054B9A6D104398657047024B9A6DE0
:1014880022EA0000986570470038024021B1054BF8
:101498001A6E104318667047024B1A6E22EA000053
:1014A800186670470038024021B1054B5A6E104348
:1014B80058667047024B5A6E22EA00005866704719
:1014C8000038024021B1054B1A7810431870704754
:1014D800024B1A7822EA0000187070470D38024053
:1014E8004309012B02D1074B1B6804E0022B054B73
:1014F8000CBF1B6F5B6F00F01F0023FA00F000F0B9
:10150800010070470038024010B582B000230193F3
:1015180031242046FFF7E4FF019B01330193019B2F
:10152800B3F5A06F01D00028F3D03120FFF7D8FF22
:10153800003018BF012002B010BD00BF024B5A6F27
:1015480042F080725A67704700380240034BDB68EC
:101558001840003018BF0120704700BF0038024013
:10156800014B1870704700BF0E380240002100F090
:1015780004B80C4B5B58435004310B480B4B4218D2
:101588009A42FFF4F6AF0A4A00F003B8002342F883
:10159800043B084B9A42FFF4F9AFFEF73BFFFEF716
:1015A8006FFE7047C41500080000002024000020CA
:0C15B800240000202C000020FFF7FEBFE4
:1015C400007A030A00000000000000000102030486
:1015D40006070809000000000102030401020304D5
:0415E40006070809E5
:040000050800157565
:00000001FF
