:020000040800F2
:1000000000000220F1040008C9010008CD01000829
:10001000D1010008D5010008D90100080000000046
:10002000000000000000000000000000DD010008EA
:10003000E101000800000000E50100082D020008B1
:100040003D0500083D0500083D0500083D05000888
:100050003D0500083D050008E90100083D050008D0
:100060003D0500083D0500083D0500083D05000868
:100070003D0500083D0500083D0500083D05000858
:100080003D0500083D0500083D0500083D05000848
:100090003D0500083D0500083D0500083D05000838
:1000A0003D0500083D0500083D0500083D05000828
:1000B0003D0500083D0500083D0500083D05000818
:1000C0003D0500083D0500083D0500083D05000808
:1000D0003D0500083D0500083D0500083D050008F8
:1000E0003D0500083D0500083D0500083D050008E8
:1000F0003D0500083D0500083D0500083D050008D8
:100100003D0500083D0500083D0500083D050008C7
:100110003D0500083D0500083D0500083D050008B7
:100120003D0500083D0500083D0500083D050008A7
:100130003D0500083D0500083D0500083D05000897
:100140003D0500083D0500083D0500083D05000887
:100150003D0500083D0500083D0500083D05000877
:100160003D0500083D0500083D0500083D05000867
:100170003D0500083D0500083D0500083D05000857
:080180003D0500083D050008E3
:100188000A4B1A680A4BA3FB02129209013A094B5F
:100198005A60F021084A82F8231000229A60072248
:1001A8001A602022054B1A83FEE700BF00000020DA
:1001B800D34D621010E000E000ED00E000080240BE
:1001C800704700BFFEE700BFFEE700BFFEE700BFC5
:1001D800FEE700BF704700BF704700BF704700BF11
:1001E80008B5012000F06CF910B1012000F076F993
:1001F80008BD00BF82B00190019A044B1A601A46EC
:100208001368002BFCD102B0704700BF1400002017
:10021800034B1B681BB1024B1A68013A1A607047FE
:100228001400002008B5054B1B680BB1FFF7F0FF61
:10023800034B1A6801321A6008BD00BF1400002081
:100248001800002082B0002301930093294B1A68FC
:1002580042F480321A601A46136803F4003300939C
:10026800019B01330193009B1BB9019BB3F5A06F60
:10027800F2D1204B1B6813F4003F14BF0123002365
:100288000093009B012B32D11A4B1A6C42F080521A
:100298001A64194A116841F4804111609A689A6099
:1002A8009A6842F400429A609A6842F4A0529A60AE
:1002B800124A5A601A6842F080721A601A46136825
:1002C80013F0007FFBD040F205620D4B1A60A3F5D6
:1002D80080639A6822F003029A609A6842F00202E8
:1002E8009A601A46936803F00C03082BFAD102B0FF
:1002F800704700BF003802400070004008544007B3
:10030800003C024008B50D4B1A6842F001021A6021
:10031800002199601A6822F0847222F480321A60EF
:10032800074A5A601A6822F480221A60D960FFF7D7
:1003380089FF4FF00062034B9A6008BD0038024005
:100348001030002400ED00E01E4B9B6803F00C0306
:10035800042B06D0082B08D023BB1B4A1B4B1A6062
:1003680023E01B4A194B1A601FE0164B59685B685B
:1003780003F03F0311F4800F14BF154A124AB2FB71
:10038800F3F3104A5268C2F3881202FB03F20D4BD2
:100398005B68C3F3014301335B00B2FBF3F20B4B21
:1003A8001A6002E0084A094B1A60064B9A68C2F3C1
:1003B8000312064B1A441179C9B21A68CA401A6066
:1003C800704700BF003802400024F40000000020FD
:1003D80000127A00044B00221A605A609A60DA60B0
:1003E800024A5A61704700BF003C0140FFFF7F008E
:1003F80010B48379002B33D0204B1968026821EAA6
:1004080002021A605968026821EA02025A600279F7
:1004180002F1804202F59E3214680168214311609E
:100428009968026821EA02029A60D968026821EA9A
:100438000202DA604379102B09D1104B99680268DF
:100448000A439A60D96802680A43DA6012E003F145
:10045800804303F59E33196802680A431A6009E06D
:10046800037903F1804303F59E331A68016822EA91
:1004780001021A605DF8044B704700BF003C014060
:100488000023036003710C2242718371704700BF1F
:10049800024B1A6910431861704700BF003C0140C5
:1004A800034B5B691840003018BF0120704700BF3C
:1004B800003C0140014B5861704700BF003C0140BF
:1004C800054B1A6802405B69034203D0101C18BF31
:1004D8000120704700207047003C0140014B5861E3
:1004E800704700BF003C0140002100F004B80C4BED
:1004F8005B58435004310B480B4B42189A42FFF4A7
:10050800F6AF0A4A00F003B8002342F8043B084B50
:100518009A42FFF4F9AFFFF7F5FEFFF731FE704797
:1005280040050008000000201400002014000020EE
:080538001C000020FFF7FEBFCC
:10054000007A030A0000000000000000010203041A
:040550000607080989
:04000005080004F1FA
:00000001FF
