:020000040800F2
:1000000000000220ED22000891050008A505000867
:10001000B9050008CD050008E10500080000000052
:10002000000000000000000000000000F5050008CE
:1000300009060008000000001D06000875060008FB
:100040003923000839230008392300083923000820
:100050003923000839230008310600083923000835
:100060003923000839230008392300083923000800
:1000700039230008392300083923000839230008F0
:1000800039230008392300083923000839230008E0
:1000900039230008392300083923000839230008D0
:1000A00039230008392300083923000839230008C0
:1000B00039230008392300086505000839230008A2
:1000C00039230008392300083923000839230008A0
:1000D0003923000839230008392300083923000890
:1000E0003923000839230008392300083923000880
:1000F0003923000839230008392300083923000870
:10010000392300083923000839230008392300085F
:10011000392300083923000839230008392300084F
:10012000392300083923000839230008392300083F
:10013000392300083923000839230008392300082F
:10014000392300083923000839230008392300081F
:10015000392300083923000839230008590300080F
:1001600039230008392300083923000839230008FF
:1001700039230008392300083923000839230008EF
:080180003923000839230008AF
:1001880070B588B02020012100F0CEFE04200121A6
:1001980000F092FEC023069302238DF81C308DF8E0
:1001A8001D3000248DF81E4001258DF81F501F4E6C
:1001B800304606A900F0A6FC30460621082200F0C9
:1001C80029FD30460721082200F024FD4FF4E133D1
:1001D8000293ADF80C40ADF80E40ADF81040ADF804
:1001E80014400C23ADF81230A6F57446304602A927
:1001F80001F026FE3046294601F0AAFE304640F2BC
:1002080025512A4601F080FF47238DF804308DF8E8
:1002180005408DF806408DF8075001A800F008FB4E
:100228003046294601F094FE08B070BD000802402F
:1002380038B504460D4609E0238803F040039BB215
:10024800002BF9D0204601F0B7FE013529780029A6
:10025800F2D138BD30B585B00A4604A9002301F8AB
:10026800023D0A4D0BE0A5FB0243DB081C4603EBED
:100278008303A2EB4303303301F8013D2246002AF1
:10028800F1D1FFF7D5FF05B030BD00BFCDCCCCCC48
:1002980070B584B030238DF8043078238DF805309C
:1002A80000238DF80E30094D09E001F00F02AC5C17
:1002B80004AEF21A02F8034C09090133DBB2072B2A
:1002C800F3D901A9FFF7B4FF04B070BD6C2300088F
:1002D80010B4002309E003EB83035C002346303AA3
:1002E800092A98BFA3180130013902780AB10029F8
:1002F800F1D118465DF8044B704700BF08B50E4BA6
:100308001B78612B0AD0712B11D10C48012100F008
:1003180071FC0B480B49FFF78BFF08BD074801210B
:1003280000F06AFC06480849FFF782FF08BD044848
:100338000649FFF77DFF08BD48000020000802407D
:100348000014014080230008882300089423000833
:1003580070B5134801F034FEC4B20D2C01D00A2C3C
:100368000CD1104B1B780D2B17D00E4D6B78002637
:100378000D4AD654FFF7C2FF6E700EE0082C06D166
:10038800084B5B781BB1013B064A537005E0054AF0
:100398005378591C5170044AD454024B1C7070BDD8
:1003A80000140140380000204800002000B583B048
:1003B8002923009301238DF8043000238DF806309B
:1003C80003228DF805208DF807300348694600F0B0
:1003D80099FB03B05DF804FB00080240F0B58BB050
:1003E8000220012100F068FD0420012100F08EFDAB
:1003F8004FF08042344B1A6040F2FF730893002597
:10040800ADF81C50ADF82450ADF81E502F4C2046C6
:1004180007A900F0FFFF6023ADF808300126ADF80A
:100428000A604FF400730493ADF81450204602A9F3
:1004380001F09EF82046082101F0F0F94FF480639E
:100448000493204602A901F0CBF82046082101F0C8
:10045800EDF94FF4C0630493204602A901F006F9B0
:100468002046082101F0ECF92046314601F04CF80D
:100478004FF4E073009302278DF804708DF806504E
:1004880003238DF805308DF8075005F1804505F5F3
:1004980001352846694600F035FB284606213A46CC
:1004A80000F0B8FB284607213A4600F0B3FB28467F
:1004B80008213A4600F0AEFBA6812046314601F0FD
:1004C80049F80BB0F0BD00BF00E100E000080040B3
:1004D80038B51B4B1A681B4BA3FB02129209013A51
:1004E800194B5A60F021194A82F8231000249C60A5
:1004F80007221A60012001F059FE204601F056FE3D
:10050800022001F053FE032001F050FE104C4FF47E
:10051800805525834FF47A7000F090F86583FFF7D3
:100528002FFEFFF75BFF0B480B49FFF781FE6425A1
:10053800636983F400436361284600F07FF8F7E7B6
:1005480000000020D34D621010E000E000ED00E054
:10055800000C024000140140A8230008084B1B8A25
:1005680013F0010F0BD0064A138A23F001031B0472
:100578001B0C1382034B5A6982F020025A617047A0
:10058800000800400008024008B502480249FFF789
:100598004FFE08BD00140140CC23000808B50248EE
:1005A8000249FFF745FEFEE700140140DC2300087E
:1005B80008B502480249FFF73BFEFEE70014014078
:1005C800F023000808B502480249FFF731FEFEE7AC
:1005D800001401400424000808B502480249FFF746
:1005E80027FEFEE7001401401824000808B5024859
:1005F8000249FFF71DFE08BD001401404824000809
:1006080008B502480249FFF713FE08BD001401406F
:100618003024000808B502480249FFF709FE08BD62
:10062800001401404424000808B5012000F0D4F962
:1006380010B1012000F0DEF908BD00BF82B00190C2
:10064800019A044B1A601A461368002BFCD102B0B9
:10065800704700BF44000020034B1B681BB1024BCE
:100668001A68013A1A6070474400002008B5054B23
:100678001B680BB1FFF7F0FF034B1A6801321A60D1
:1006880008BD00BF440000207C00002082B0002389
:1006980001930093294B1A6842F480321A601A4673
:1006A800136803F400330093019B01330193009B0B
:1006B8001BB9019BB3F5A06FF2D1204B1B6813F453
:1006C800003F14BF012300230093009B012B32D16C
:1006D8001A4B1A6C42F080521A64194A116841F494
:1006E800804111609A689A609A6842F400429A6060
:1006F8009A6842F4A0529A60124A5A601A6842F004
:1007080080721A601A46136813F0007FFBD040F21B
:1007180005620D4B1A60A3F580639A6822F0030204
:100728009A609A6842F002029A601A46936803F047
:100738000C03082BFAD102B0704700BF0038024002
:100748000070004008544007003C024008B50D4BBB
:100758001A6842F001021A60002199601A6822F0B2
:10076800847222F480321A60074A5A601A6822F4A6
:1007780080221A60D960FFF789FF4FF00062034BAF
:100788009A6008BD003802401030002400ED00E0F7
:100798001E4B9B6803F00C03042B06D0082B08D0D3
:1007A80023BB1B4A1B4B1A6023E01B4A194B1A60D8
:1007B8001FE0164B59685B6803F03F0311F4800F84
:1007C80014BF154A124AB2FBF3F3104A5268C2F337
:1007D800881202FB03F20D4B5B68C3F3014301333C
:1007E8005B00B2FBF3F20B4B1A6002E0084A094BBC
:1007F8001A60064B9A68C2F30312064B1A44117921
:10080800C9B21A68CA401A60704700BF003802406F
:100818000024F4000000002000127A0040F0BF60BD
:1008280040F40030014BD860704700BF00ED00E095
:1008380010B4C3781BB3194BDB68DB43C3F3022343
:10084800C3F10402D2B20F2141FA03F3417801FA4D
:1008580002F2D2B2847803EA040111430901C9B251
:1008680002780F4B1A4482F800130278510902F0FB
:100878001F02012000FA02F243F821200AE003785F
:10088800590903F01F03012202FA03F32031044A35
:1008980042F821305DF8044B704700BF00ED00E0DE
:1008A80000E100E021F0604121F07F010843014BA5
:1008B8009860704700ED00E021B1054B1A691043BC
:1008C80018617047024B1A6922EA000018617047E4
:1008D80000ED00E00428044B1A680CBF42F0040243
:1008E80022F004021A60704710E000E0044B002276
:1008F8001A605A609A60DA60024A5A61704700BF0B
:10090800003C0140FFFF7F0010B48379002B33D0F7
:10091800204B1968026821EA02021A6059680268C5
:1009280021EA02025A60027902F1804202F59E32FF
:1009380014680168214311609968026821EA02027B
:100948009A60D968026821EA0202DA604379102BBA
:1009580009D1104B996802680A439A60D9680268FD
:100968000A43DA6012E003F1804303F59E33196805
:1009780002680A431A6009E0037903F1804303F52A
:100988009E331A68016822EA01021A605DF8044B76
:10099800704700BF003C01400023036003710C2234
:1009A80042718371704700BF024B1A691043186186
:1009B800704700BF003C0140034B5B6918400030A2
:1009C80018BF0120704700BF003C0140014B58612F
:1009D800704700BF003C0140054B1A6802405B6944
:1009E800034203D0101C18BF012070470020704735
:1009F800003C0140014B5861704700BF003C01407A
:100A080008B5374B984208D10120014600F09AFA00
:100A18000120002100F096FA08BD324B984208D117
:100A28000220012100F08EFA0220002100F08AFA4B
:100A380008BD2D4B984208D10420012100F082FA0C
:100A48000420002100F07EFA08BD284B984208D106
:100A58000820012100F076FA0820002100F072FA3F
:100A680008BD234B984208D11020012100F06AFAF2
:100A78001020002100F066FA08BD1E4B984208D1EC
:100A88002020012100F05EFA2020002100F05AFA0F
:100A980008BD194B984208D14020012100F052FAB4
:100AA8004020002100F04EFA08BD144B984208D1AE
:100AB8008020012100F046FA8020002100F042FA4F
:100AC80008BD0F4B984209D14FF48070012100F006
:100AD80039FA4FF48070002100F034FA08BD00BFE5
:100AE800000002400004024000080240000C0240DE
:100AF800001002400014024000180240001C02408E
:100B080000200240F0B40023012503263EE005FA48
:100B180003F20C681440944237D107685A0006FA69
:100B280002F4E44327400760D0F800C00F799740EB
:100B38004CEA070707600F79013FFFB2012F16D86B
:100B480087683C40846087684C7994403C43846063
:100B580047689CB205FA04FC27EA0C074760476817
:100B680091F806C00CFA04F4A4B23C434460C76888
:100B78009CB2640006FA04F427EA0404C460C4685A
:100B8800CF7907FA02F22243C26001330F2BBED994
:100B9800F0BC70474FF6FF73036000230371437185
:100BA8008371C371704700BF82B04FF480330193E3
:100BB800019B0B430193019BC361C161019BC3610D
:100BC800C3690193C369019302B070470069084083
:100BD800003018BF01207047006980B2704700BF1D
:100BE80040690840003018BF01207047406980B252
:100BF800704700BF01837047418370470AB1018382
:100C080070474183704700BF41617047436959404D
:100C18004161704730B401F007039B009A40C9084E
:100C2800083150F821400F2505FA03F324EA03039D
:100C380040F8213050F821301A4340F8212030BCC8
:100C4800704700BF0A4B1A6842F001021A6000217F
:100C580099601A6822F0847222F480321A60054A78
:100C68005A601A6822F480221A60D960704700BF5F
:100C78000038024010300024024B00221A7018700D
:100C8800704700BF02380240034B1A6822F0F8028E
:100C980042EAC0001860704700380240014B1860F3
:100CA800704700BF00004742084B00221A701A70B4
:100CB800012802D0042804D070470122034B1A707F
:100CC80070470522014B1A70704700BF7038024008
:100CD800014B1860704700BF800E474241EA8212FC
:100CE8005B08013B42EA03421043009B40EA03636E
:100CF80001494B60704700BF00380240014B186043
:100D0800704700BF60004742090741EA8010024B64
:100D1800C3F88400704700BF00380240014B1860D8
:100D2800704700BF68004742014B1860704700BF1A
:100D38004C004742034B9A6822F0EC6201430A4395
:100D48009A60704700380240034B9A6822F0784254
:100D580001430A439A60704700380240034B9A687F
:100D680022F0030210439860704700BF0038024029
:100D7800024B986800F00C00704700BF0038024032
:100D8800034B9A6822F0F00210439860704700BF46
:100D980000380240034B9A6822F4E05210439860EE
:100DA800704700BF00380240034B9A6822F4604243
:100DB80042EAC000986070470038024010B4254BE2
:100DC8009B6803F00C03042B05D0082B06D00BBB43
:100DD800214B036020E0214B03601DE01D4B5A6846
:100DE8005B6803F03F0312F4800F14BF1B4A1A4AD2
:100DF800B2FBF3F3174A5268C2F3881202FB03F3FB
:100E0800144A5268C2F3014201325200B3FBF2F3B2
:100E1800036001E0104B03600E498B68C3F30313B2
:100E28000F4AD35CDBB2046824FA03F343608C688E
:100E3800C4F38224145DE4B223FA04F4846089685C
:100E4800C1F34231525CD2B2D340C3605DF8044B67
:100E5800704700BF003802400024F40000127A00F6
:100E68001400002000F44073B3F5407F09D1084A0C
:100E7800916821F4F81120F0704323F440730B4378
:100E88009360034B1A6FC0F30B0010431867704749
:100E980000380240014B1860704700BF3C0E4742C3
:100EA800014B1860704700BF400E4742014B186065
:100EB800704700BF5C01474221B1054B1A6B1043D4
:100EC80018637047024B1A6B22EA000018637047D8
:100ED8000038024021B1054B5A6B104358637047E4
:100EE800024B5A6B22EA00005863704700380240F0
:100EF80021B1054B9A6B104398637047024B9A6B6C
:100F080022EA0000986370470038024021B1054B7F
:100F18001A6C104318647047024B1A6C22EA0000DE
:100F2800186470470038024021B1054B5A6C1043D1
:100F380058647047024B5A6C22EA000058647047A4
:100F48000038024021B1054B1A69104318617047F7
:100F5800024B1A6922EA0000186170470038024003
:100F680021B1054B5A69104358617047024B5A69C1
:100F780022EA0000586170470038024021B1054B51
:100F88009A69104398617047024B9A6922EA0000F7
:100F9800986170470038024021B1054B1A6A104326
:100FA80018627047024B1A6A22EA000018627047FA
:100FB8000038024021B1054B5A6A10435862704705
:100FC800024B5A6A22EA0000586270470038024011
:100FD80021B1054B1A6D104318657047024B1A6D05
:100FE80022EA0000186570470038024021B1054B1D
:100FF8005A6D104358657047024B5A6D22EA00003B
:10100800586570470038024021B1054B9A6D10436E
:1010180098657047024B9A6D22EA00009865704700
:101028000038024021B1054B1A6E1043186670470C
:10103800024B1A6E22EA0000186670470038024018
:1010480021B1054B5A6E104358667047024B5A6ED1
:1010580022EA0000586670470038024021B1054B6B
:101068001A78104318707047024B1A7822EA000069
:10107800187070470D3802404309012B02D1074B05
:101088001B6804E0022B054B0CBF1B6F5B6F00F065
:101098001F0023FA00F000F00100704700380240FA
:1010A80010B582B00023019331242046FFF7E4FFF6
:1010B800019B01330193019BB3F5A06F01D0002878
:1010C800F3D03120FFF7D8FF003018BF012002B05D
:1010D80010BD00BF024B5A6F42F080725A677047CA
:1010E80000380240034BDB681840003018BF01206D
:1010F800704700BF00380240014B1870704700BFAE
:101108000E38024008B54FF480400121FFF752FF26
:101118004FF480400021FFF74DFF08BD014B1860D8
:10112800704700BF0038014030B401F0030292005C
:101138000F2494408908084B023153F8215025EABE
:10114800040443F8214053F821409040044343F8F5
:10115800214030BC704700BF00380140014B186087
:10116800704700BFDC002742014B1860704700BF82
:1011780000042742034B186A00F48070003018BF3F
:10118800012070470038014030B4048C24F0010479
:101198002404240C0484048B058C24F0F304240414
:1011A800240C1B019BB21A43144325F00A031B04A9
:1011B8001B0C194341F001030483038430BC7047BE
:1011C80030B4048C24F010042404240C0484058B0B
:1011D800048C090189B225F440752D052D0D1B03DA
:1011E8009BB21D43120292B2154324F0A0031B04C4
:1011F8001B0C0B4343F010030583038430BC70477A
:1012080030B4048C24F480742404240C0484848B67
:10121800058C090289B224F0F3042404240C1B0170
:101228009BB21A43144325F420631B041B0C194377
:1012380041F480718483018430BC704730B4048CDD
:1012480024F480542404240C0484858B048C09031E
:1012580089B225F440752D052D0D120292B2154361
:101268001B039BB21D4324F400546404640C214303
:1012780041F480518583018430BC704708B5584BD0
:10128800984208D101200146FFF794FE0120002171
:10129800FFF790FE08BDB0F1804F08D1012001464C
:1012A800FFF77AFE01200021FFF776FE08BD4D4BBF
:1012B800984208D102200121FFF76EFE022000218A
:1012C800FFF76AFE08BD484B984208D10420012167
:1012D800FFF762FE04200021FFF75EFE08BD434BC6
:1012E800984208D108200121FFF756FE0820002166
:1012F800FFF752FE08BD3E4B984208D1102001214D
:10130800FFF74AFE10200021FFF746FE08BD394BC3
:10131800984208D120200121FFF73EFE202000211D
:10132800FFF73AFE08BD344B984208D1022001214C
:10133800FFF740FE02200021FFF73CFE08BD2F4BBF
:1013480098420AD14FF480300121FFF733FE4FF461
:1013580080300021FFF72EFE08BD294B98420AD1A4
:101368004FF400300121FFF725FE4FF40030002133
:10137800FFF720FE08BD234B98420AD14FF4802086
:101388000121FFF717FE4FF480200021FFF712FE1E
:1013980008BD1D4B984208D140200121FFF7FCFDF4
:1013A80040200021FFF7F8FD08BD184B984208D1EE
:1013B80080200121FFF7F0FD80200021FFF7ECFDE0
:1013C80008BD134B984209D14FF480700121FFF7F3
:1013D800E3FD4FF480700021FFF7DEFD08BD00BF7C
:1013E800000001400004004000080040000C0040DC
:1013F800001000400014004000040140004001407B
:10140800004401400048014000180040001C004012
:101418000020004003889BB21B4A904212D002F57C
:10142800806290420ED0B0F1804F0BD0A2F580328E
:10143800904207D002F58062904203D002F58062A4
:10144800904203D123F070034A8813430F4A904215
:1014580008D002F58062904204D023F440739BB216
:101468000A89134303804B68C3620B880385064BC4
:10147800984203D003F58063984201D18B7A0386A2
:1014880001238382704700BF000001400010004024
:101498004FF0FF334360002303800381438083724E
:1014A800704700BF01858282704700BF038823F020
:1014B80070031B041B0C194301807047416270477D
:1014C800C1627047406A7047008D80B2704700BFA4
:1014D80029B103889BB243F0020303807047038855
:1014E80023F002031B041B0C0380704729B10388F7
:1014F8009BB243F0040303807047038823F004037E
:101508001B041B0C0380704729B103889BB243F06E
:10151800800303807047038823F080031B041B0C9F
:1015280003807047038823F008031B041B0C038007
:1015380003889BB219430180704700BF038823F4D6
:1015480040731B041B0C038003889BB21943018062
:10155800704700BF29B103889BB243F001030380A1
:101568007047038823F001031B041B0C038070479A
:1015780030B4038C23F001031B041B0C0384038C7D
:101588008488A4B2028B22F073021204120C0D8814
:101598002A4323F002031B041B0C8D892B434D881F
:1015A8002B430E4DA84203D005F58065A8420DD106
:1015B80023F00803CD892B4323F004038D882B43A4
:1015C80024F440740D8A2C434D8A2C438480028372
:1015D8008A684263038430BC704700BF0000014042
:1015E80030B4038C23F010031B041B0C0384038CFE
:1015F8008488A4B2028B22F4E6421204120C0D88ED
:101608002D02ADB22A4323F020031B041B0C8D8945
:101618002D01ADB22B434D882D01ADB22B43124D98
:10162800A84203D005F58065A84215D123F08003B0
:10163800CD892D01ADB21D4325F040058B881B01D6
:101648009BB22B4324F440640D8AAD00ADB2254310
:101658004C8AA400A4B22C43848002838A688263E3
:10166800038430BC704700BF0000014030B4038CD5
:1016780023F480731B041B0C0384038C8488A4B29A
:10168800828B22F073021204120C0D882A4323F471
:1016980000731B041B0C8D892D02ADB22B434D88A2
:1016A8002D02ADB22B43124DA84203D005F580653B
:1016B800A84215D123F40063CD892D02ADB21D4394
:1016C80025F480658B881B029BB22B4324F440547D
:1016D8000D8A2D01ADB225434C8A2401A4B22C43B6
:1016E800848082838A68C263038430BC704700BFE9
:1016F8000000014030B4038C23F480531B041B0CFE
:101708000384038C8488A4B2828B22F4E6421204F8
:10171800120C0D882D02ADB22A4323F400531B048A
:101728001B0C8D892D03ADB22B434D882D03ADB213
:101738002B430A4DA84203D005F58065A84205D180
:1017480024F480440D8AAD01ADB22C438480828399
:101758008A680264038430BC704700BF00000140FF
:10176800002303804380838083608381C381038255
:101778004382704730B400F1180301248C40058C73
:10178800E443A4B22C40048409B108290AD14908C9
:10179800C85820F070000004000CC850C858024314
:1017A800CA500DE00439C1F34E01C85820F4E04096
:1017B8000004000CC850C858120292B20243CA5022
:1017C80030BC70474163704781637047C16370479D
:1017D80001647047038B23F070031B041B0C19432F
:1017E80001837047038B23F4E0431B041B0C09029D
:1017F80089B20B4303837047838B23F070031B0468
:101808001B0C194381837047838B23F4E0431B042B
:101818001B0C090289B20B4383837047038B23F0A7
:1018280008031B041B0C194301837047038B23F423
:1018380000631B041B0C090289B20B430383704726
:10184800838B23F008031B041B0C19438183704707
:10185800838B23F400631B041B0C090289B20B431E
:1018680083837047038B23F004031B041B0C194369
:1018780001837047038B23F480631B041B0C09024C
:1018880089B20B4303837047838B23F004031B0443
:101898001B0C194381837047838B23F480631B04DB
:1018A8001B0C090289B20B4383837047038B23F017
:1018B80080031B041B0C194301837047038BC3F37C
:1018C8000E03090289B20B4303837047838B23F00D
:1018D80080031B041B0C194381837047838BC3F35C
:1018E8000E03090289B20B4383837047038C23F0EC
:1018F80002031B041B0C194301847047038C23F05B
:1019080008031B041B0C194301847047038C23F044
:1019180020031B041B0C090189B20B430384704785
:10192800038C23F080031B041B0C090189B20B43B1
:1019380003847047038C23F400731B041B0C0902F7
:1019480089B20B4303847047038C23F400631B04A0
:101958001B0C090289B20B4303847047038C23F4E0
:1019680000531B041B0C090389B20B430384704703
:1019780010B401238B40048CDB439BB223400384C7
:10198800038C8A4013439BB203845DF8044B704771
:1019980010B404238B40048CDB439BB223400384A4
:1019A800038C8A4013439BB203845DF8044B704751
:1019B80000230380438001228280C3800381704713
:1019C800406B7047806B7047C06B7047006C704706
:1019D800038B23F00C031B041B0C0383038B9BB2A8
:1019E80019430183704700BF038B23F440631B0432
:1019F8001B0C0383038B9BB2090289B20B4303833D
:101A0800704700BFF8B505460C464988002914BF41
:101A180000270227A388012B14BF0126022622884B
:101A280092B91A462389FFF7AFFB2846E188FFF7EA
:101A3800CFFF2846394632462389FFF7C1FB28469F
:101A4800E188FFF7D1FFF8BD1A462389FFF7B8FBF5
:101A58002846E188FFF7C8FF2846394632462389D9
:101A6800FFF792FB2846E188FFF7B2FFF8BD00BFF9
:101A7800838B23F00C031B041B0C8383838B9BB287
:101A880019438183704700BF838B23F440631B0491
:101A98001B0C8383838B9BB2090289B20B4383831C
:101AA800704700BF38B505460C460B884BB94988C6
:101AB800A2882389FFF768FB2846E188FFF788FF9B
:101AC80038BD042B09D14988A2882389FFF778FB00
:101AD8002846E188FFF788FF38BD082B09D14988D7
:101AE800A2882389FFF78CFB2846E188FFF7C0FF0F
:101AF80038BD4988A2882389FFF7A0FB2846E188DA
:101B0800FFF7C2FF38BD00BFF0B4B1F800C04B8882
:101B18008F88CE880D894C898A894CEA03033B4318
:101B280033432B4323431343A0F84430F0BC70479E
:101B38000023038043808380C380038143818381A2
:101B4800704700BF49B1B0F844306FEA43436FEAC9
:101B580053439BB2A0F844307047B0F84430C3F305
:101B68000E03A0F84430704729B183889BB243F034
:101B7800040383807047838823F004031B041B0C31
:101B88008380704729B183889BB243F00103838027
:101B98007047838823F001031B041B0C8380704764
:101BA80022B183899BB21943818170478389C943D4
:101BB80089B219408181704781827047008A084044
:101BC800003018BF01207047C94389B201827047AD
:101BD800038A80890840194203D0003018BF0120C9
:101BE80070470020704700BFC94389B2018270471F
:101BF8000A43A0F84820704722B183899BB2194351
:101C0800818170478389C94389B2194081817047AE
:101C180029B183889BB243F0080383807047838887
:101C280023F008031B041B0C83807047038923F0EF
:101C380007031B041B0C0381704700BF038923F0B3
:101C480070031B041B0C19430181704710B504462F
:101C5800FFF7F4FF23899BB243F00703238110BDEC
:101C680038B504460D46602904D111460122FFF714
:101C7800A7FA03E011460122FFF786FA2046294613
:101C8800FFF7DCFF23899BB243F00703238138BDAC
:101C9800838823F070031B041B0C838083889BB20A
:101CA80019438180704700BF038923F007031B0491
:101CB8001B0C038103899BB219430181704700BF44
:101CC800038923F080031B041B0C038103899BB247
:101CD80019430181704700BF10B40489E4B21B02A4
:101CE8009BB21A4311430C4304815DF8044B7047BF
:101CF80010B50446FFF7F0FF238923F077031B0490
:101D08001B0C43F07703238110BD00BF10B50446B8
:101D1800FFF7E2FF23899BB243F48043238110BD80
:101D280070B40489068BB6B2058C24F00704240429
:101D3800240C214326F4407626F0030646F48076E8
:101D480046F0010625F022052D042D0C1B019BB23F
:101D58001A43154301810683058470BC704700BF90
:101D680029B183889BB243F08003838070478388BE
:101D780023F080031B041B0C83807047A0F85010CD
:101D8800704700BF08B5284B984208D110200121A0
:101D9800FFF710F910200021FFF70CF908BD234BBD
:101DA80098420AD14FF400300121FFF7F5F84FF4BB
:101DB80000300021FFF7F0F808BD1D4B98420AD10A
:101DC8004FF480200121FFF7E7F84FF4802000212D
:101DD800FFF7E2F808BD174B98420AD14FF40020EC
:101DE8000121FFF7D9F84FF400200021FFF7D4F8BC
:101DF80008BD114B98420AD14FF480100121FFF71A
:101E0800CBF84FF480100021FFF7C6F808BD0B4B44
:101E1800984207D120200121FFF7CCF8202000218B
:101E2800FFF7C8F808BD00BF00100140004400409B
:101E380000480040004C00400050004000140140A1
:101E480030B585B004460D46038A9BB223F440534F
:101E5800CA8813430382828992B222F4B05222F0D4
:101E68000C0288880B89498903430B431343A381D8
:101E7800A38A9BB223F44073AA891343A3826846BA
:101E8800FEF79CFF1F4B9C4203D003F580639C42E6
:101E980001D1039A00E0029AA3891BB2002B08DA49
:101EA80002EB820202EB82022B685B00B2FBF3F2C8
:101EB80007E002EB820202EB820229688900B2FB8A
:101EC800F1F2114BA3FB02135B091801642103FB18
:101ED8001123A18909B2002908DADB0032330A4D3F
:101EE800A5FB0323C3F34213034307E01B0132336B
:101EF800054DA5FB0313C3F3431303439BB223818F
:101F080005B030BD001001401F85EB514FF416534A
:101F1800036000238380C38003810C224281838174
:101F2800704700BF30B4028A92B222F470620D8802
:101F38004B888C88C9882B4323430B431343038264
:101F480030BC70470023038043808380C380704780
:101F580029B183899BB243F40053838170478389F5
:101F680023F400531B041B0C83817047038B03F479
:101F78007F430383038B9BB219430183704700BFE0
:101F880039B183896FEA43436FEA53439BB2838134
:101F980070478389C3F30E038381704729B1838A0D
:101FA8009BB243F4006383827047838A23F40063FF
:101FB8001B041B0C83827047C1F3080181807047A2
:101FC8008088C0F308007047038A23F00F031B04BE
:101FD8001B0C0382038A9BB219430182704700BF1E
:101FE80029B183899BB243F00203838170478389B7
:101FF80023F002031B041B0C83817047838923F49D
:1020080000631B041B0C838183899BB21943818164
:10201800704700BF038A23F020031B041B0C0382B4
:10202800038A9BB219430182704700BF29B1038A12
:102038009BB243F4804303827047038A23F48043AE
:102048001B041B0C0382704783899BB243F0010376
:102058008381704729B1838A9BB243F00803838246
:102068007047838A23F008031B041B0C8382704784
:10207800038BDBB20383038B9BB243EA0121018309
:10208800704700BF29B1838A9BB243F02003838243
:102098007047838A23F020031B041B0C838270473C
:1020A80029B1838A9BB243F0100383827047838AE5
:1020B80023F010031B041B0C83827047838A23F0D0
:1020C80004031B041B0C8382838A9BB219438182FD
:1020D800704700BF29B1838A9BB243F00203838211
:1020E8007047838A23F002031B041B0C838270470A
:1020F80022B1838A9BB2194381827047838AC9437C
:1021080089B219408182704710B4C1F3421301F0BB
:102118001F01012404FA01F1A34201D10C3003E0AC
:10212800022B0CBF103014301AB103681943016038
:1021380003E0036823EA010101605DF8044B70477E
:1021480000880840003018BF01207047C94389B291
:102158000180704710B4C1F3421301F01F0201243B
:102168009440012B03D1828992B2224005E0022BD0
:102178000CBF028A828A92B22240090A012303FA1A
:1021880001F1008880B208401AB1003018BF012060
:1021980000E000205DF8044B704700BF090A0123E6
:1021A8008B40DB439BB20380704700BF30B583B0E0
:1021B80004460E4D55F820000121FEF77DFE05EB83
:1021C80044052B8A009301238DF8043000228DF8F2
:1021D80006208DF8073002238DF80530044B53F89C
:1021E80024006946FEF78EFC03B030BD3C2300088E
:1021F80024000020044B53F82030044A02EB40002E
:10220800028A1A83704700BF240000203C2300087C
:10221800044B53F82030044A02EB4000028A5A83E8
:10222800704700BF240000203C230008054B53F8EA
:1022380020305969044A02EB4000028A4A405A6138
:10224800704700BF240000203C23000830B587B049
:1022580005460C4601200146FEF72EFE4FF480404D
:102268000121FEF761FE00238DF814308DF8173038
:1022780006A9012241F8082D134A02EB85052869B1
:10228800FEF740FC012C1DD100200146FEF74CFF53
:10229800029400238DF80C3008238DF80D308DF84A
:1022A8000E400DEB0300FEF72FFB06238DF80430DC
:1022B8000F238DF805308DF806308DF8074001A8FA
:1022C800FEF7B6FA07B030BD2400002008B5044B6D
:1022D80003EB800000690121FEF778FC08BD00BF10
:1022E80024000020002100F004B80C4B5B58435038
:1022F80004310B480B4B42189A42FFF4F6AF0A4AD6
:1023080000F003B8002342F8043B084B9A42FFF45C
:10231800F9AFFEF71BFAFEF7DBF870475824000800
:102328000000002038000020380000208000002035
:10233800FFF7FEBF080000000800000008000000CA
:102348000800000000100020004000800600000087
:102358000000000000000000010000000100000073
:1023680001000000303132333435363738394142D4
:102378004344454600000000504330204F4E0A00B9
:10238800504330204F46460A00000000556E6B6EE1
:102398006F776E20636F6D6D616E640A00000000D8
:1023A8000A537769746368696E6720506F7765723E
:1023B80020536F757263652057656C636F6D650A8E
:1023C800000000004E4D495F457863657074696F81
:1023D8006E000000486172644661756C745F4578F0
:1023E80063657074696F6E004D656D4D616E6167F0
:1023F800655F457863657074696F6E0042757346F2
:1024080061756C745F457863657074696F6E000000
:1024180055736167654661756C745F45786365706F
:1024280074696F6E0000000044656275674D6F6ED9
:102438005F457863657074696F6E000050656E64FF
:102448005356435F457863657074696F6E0000008A
:10245800007A030A000000000000000001020304E3
:102468000607080900000000010203040102030432
:1024780006070809000C0240000C0240000C02404C
:08248800000C024000000240BC
:04000005080022EDE0
:00000001FF
